:0300000002008E6D
:03000B000200618F
:1000230002070975A8007589007588007598007521
:100033008A00758C00758B00758D00750800750F2F
:10004300FF75B81022C200C201C205C2062243894D
:1000530001758ADF758CF2D28CD2A9D2AF22758A50
:10006300DF758CF2050A051CD50F02D206324389CF
:1000730020758DFDD28E2275985043A89012007181
:100083002275984043A890120071227581E0758E05
:10009300037400905F00F090E800F0905F01F0902F
:1000A300E801F0905F02F090E802F078007FFF74BF
:1000B30000F608DFFC7D80905FC0F0A3DDFC902399
:1000C3008874007E047DFAF0A3DDFCDEF8905F43C4
:1000D300E0C392E092E192E4F09023CAE4F0A3F04B
:1000E300A3F01200261200511206CE1206BC1224EF
:1000F3005F120881120911123869122516123997F5
:100103001208AA12305C12317512085612340E12FC
:100113003589D2072006D1D2070200EEC2ACC20055
:10012300900400A3A3A3E0B431028026A3E0B43378
:100133000302015FB436030201C5B4310302022591
:10014300B43203020374B435030204C3B446990200
:10015300058FA3E0B4309102060D808C1206E412E1
:1001630007C91207C9F5081206FAA37430F0A3747D
:1001730033F0A3E508C333F01207E5E508C333FF03
:10018300C083C082901000E5822511F582E5833596
:1001930010F583E0D082D0830511500205101207B9
:1001A300E5DFDDE50875F004A42406FF900500A350
:1001B30012079FE50875F004A42407FF12076C02D9
:1001C30006AC1206E41207C9F5F0C083C082901092
:1001D30000E582C32511F582E5833510F583E5F04B
:1001E300F0D082D0831207C9F5F0901001E582C3E5
:1001F3002511F582E5833510F583E5F0F0750800E8
:10020300900400E508C32582F582E0F5F09005002F
:10021300E508C32582F582E5F0F00508B40AE1029A
:1002230006AC751A00A31207C975F020A4F51012C5
:1002330007C975F00884C32510F511E5F0C3FD1255
:1002430007C91207C9F5081206FAA37430F0A3749C
:1002530031F0A3C202E508C3940950097401F51AE9
:100263001207E5801ED202E50875F00884F508E55B
:10027300F0B40004E5088003E50804F51A1207E565
:10028300E5F0FFE508B4010050317430F0A3C083FA
:10029300C082905F00E5822511F582E5833400F585
:1002A30083E0C3BD00031380041D1380F65006745E
:1002B30031F00203557430F002035520021EC0834F
:1002C300C082905F00E5822511F582E5833400F555
:1002D30083E0F510E508D082D0838039C083C082E3
:1002E300905F00E5822511F582E5833400F583E014
:1002F300FDA3E0FEE511C32401F511E5103400F57B
:1003030010EDD082D0831207E5E50814F508B40197
:10031300CBEEF510EFB40206E51054036152B403BB
:1003230006E51054076152B40406E510540F6152F8
:10033300B40506E510541F6152B40606E510543F98
:100343006152B40706E510547F6152E51054FF1261
:1003530007E5900500A3E51A75F002A42406FF1231
:10036300079FE51A75F002A42407FF12076C020623
:10037300AC751A00A31207C975F020A4F510120773
:10038300C975F00884C32510F511E5F0C3FD120704
:10039300C91207C9F5081206FAA37430F0A3743220
:1003A300F0A3C202E508C3940950097401F51A12B7
:1003B30007E5801ED202E50875F00884F508E5F02C
:1003C300B40004E5088003E50804F51A1207E5E51F
:1003D300F0FFE508B4010050317430F0A3C083C0CE
:1003E30082900F00E5822511F582E5833400F583C1
:1003F300E0C3BD00031380041D1380F6500674315F
:10040300F00204A47430F00204A420021EC083C0CE
:1004130082900F00E5822511F582E5833400F58390
:10042300E0F510E508D082D0838039C083C0829084
:100433000F00E5822511F582E5833400F583E0FDA5
:10044300A3E0FEE511C32401F511E5103400F51016
:10045300EDD082D0831207E5E50814F508B401CB8B
:10046300EEF510EFB40206E510540381A1B40306C0
:10047300E510540781A1B40406E510540F81A1B41B
:100483000506E510541F81A1B40606E510543F810B
:10049300A1B40706E510547F81A1E51054FF1207AC
:1004A300E5900500A3E51A75F002A42406FF1207E0
:1004B3009FE51A75F002A42407FF12076C0206AC2D
:1004C300A31207C9F51075F020A4F5101207C9751A
:1004D300F00884C32510F511E5F0C3FD1207C9F533
:1004E300F0905F00E5822511F582E5833400F58302
:1004F300E0F510E5F0B4FF37E510BD0004D2E0806D
:1005030063BD0104D2E1805CBD0204D2E28055BD2B
:100513000304D2E3804EBD0404D2E48047BD050446
:10052300D2E58040BD0604D2E68039D2E78035E5C6
:1005330010BD0004C2E0802CBD0104C2E18025BDD2
:100543000204C2E2801EBD0304C2E38017BD04049B
:10055300C2E48010BD0504C2E58009BD0604C2E6FD
:100563008002C2E7F07508007F0F900400E508C31E
:100573002582F582E0F5F0900500E508C32582F5B4
:1005830082E5F0F00508B40AE10206ACA31207C93C
:10059300F51B75F020A4F5101207C9F51A75F008BC
:1005A30084C32510F5111207C91207C91207C9C35D
:1005B30033F508FF78801207C9F608DFF9905F006A
:1005C300E5822511F582E5833400F583AF08788051
:1005D300E6F0A308DFFA7F0D750800900400E50834
:1005E300C32582F582E0F5F0900500E508C3258276
:1005F300F582E5F0F00508DFE27F0C900500A31219
:10060300079F7F0D12076C0206AC1206E41207C99E
:100613001207C9FD1207C91207C9F5F0C083C082CA
:10062300901000E582C32511F582E5833510F5832B
:10063300E5F0F0D082D0831207C9F5F0C083C08201
:10064300901000E511C32401F511E5822511F5820F
:10065300E5103400F510E583C32510F583E5F0F0CC
:10066300D082D083E511C32401F511E5103400DDF8
:10067300A6750800900400E508C32582F582E0F51D
:10068300F0900500E508C32582F582E5F0F0E50862
:10069300C32401F508B40DDC7F0C900500A31207F9
:1006A3009F7F0D12076C0206AC1200847400F508DC
:1006B300120744750FFFC2062220060B20000420F8
:1006C30001052212011F221206CE22C2ACC205C2AC
:1006D300011200487400F50812007AC206750FFF74
:1006E30022A31207C9C333F5101207C9C333F51187
:1006F300E5103400F51022900500743AF0A374302D
:10070300F0A37431F02220990420980D32300505AE
:10071300D201C2993212074432C0D0C083C082C012
:10072300E0900400E582C32508F582E599F0A3056E
:1007330008B40A02D200D0E0D082D083D0D0C298CD
:1007430032C0D0C0E0C083C082C299900500C3E527
:10075300822508F582E0F599A30508B40A02D205BB
:10076300D082D083D0E0D0D022900500E5822FF54F
:1007730082E5833400F583E50DF0A3E50EF0A37461
:100783000DF0A3740AF02290078F93223031323395
:10079300343536373839414243444546EFC303FFC6
:1007A3007400F5F0E01207C9C325F0DFF5F404F592
:1007B3000C850C0954F0C412078AF50DE509540F92
:1007C30012078AF50E22E0C39430B40A0040029463
:1007D30007C4FAA3E0A3C39430B40A004002940709
:1007E3004A22C0E054F0C42430B43A004002240743
:1007F300F0A3D0E0540F2430B43A0040022407F0B1
:10080300A322C37F107C007D00E51A33F51AE51B94
:1008130033F51BEC33FCF510ED33FDF511EC9AFCCD
:10082300ED9BFDB34006E510FCE511FDDFDBE51AAA
:1008330033F51AE51B33F51B22C278C279C27AEA73
:10084300C39CFEEB9D5003D278224E7003D27922D3
:10085300D27A22200705E4D2B58022C2B5905F0088
:10086300E090E800F0905F01E090E801F0905F0213
:10087300E090E802F0905F03E090E803F02290F844
:1008830000E0F4F9F529A3E0F4FAF52AA3E0F4FB78
:10089300F52BA3E0F4FCF528900F00E9F0EAA3F0B0
:1008A300A3EBF0ECA3F02290F818E0FC90F819E029
:1008B300FD5470C4F531ED540FFDECFC902420E59C
:1008C300312531F8E582C328F582EDF0A3ECF0225F
:1008D30075F010E4FFFEFDFCC3EA33FAEB33FB5083
:1008E30010EC28FCED39FDEE3400FEEF3400FF4040
:1008F30004D5F002C322C3EC33FCED33FDEE33FE2B
:10090300EF33FF80D404832200285078A0C8E50A7F
:10091300C3C203B41B004009D27FD203C3941BF5A7
:100923000A301041201147300344902389E0C32447
:1009330001F0902388E03400F0902388E0F5F090F4
:100943001050E0B5F002800440175011902389E065
:10095300F5F0901051E0B5F00280064004C211801A
:100963000DD2118009C211E4902388F0A3F0301254
:1009730042201348300345C390238BE0C32401F086
:1009830090238AE03400F090238AE0F5F09010522F
:10099300E0B5F00280044017501190238BE0F5F08E
:1009A300901053E0B5F00280064004C213800DD2CC
:1009B300138009C213E490238AF0A3F0301441207A
:1009C300154730034490238DE0C32401F090238C1A
:1009D300E03400F090238CE0F5F0901054E0B5F093
:1009E3000280044017501190238DE0F5F0901055CC
:1009F300E0B5F00280064004C215800DD2158009CF
:100A0300C215E490238CF0A3F03016412017473031
:100A1300034490238FE0C32401F090238EE034003D
:100A2300F090238EE0F5F0901056E0B5F0028004CC
:100A33004017501190238FE0F5F0901057E0B5F078
:100A43000280064004C217800DD2178009C217E442
:100A530090238EF0A3F030184120194730034490BF
:100A63002391E0C32401F0902390E03400F090231D
:100A730090E0F5F0901058E0B5F002800440175074
:100A830011902391E0F5F0901059E0B5F002800643
:100A93004004C219800DD2198009C219E490239031
:100AA300F0A3F0301A4F201B5590105AE0B4000702
:100AB300A3E0B40002803A300344902393E0C324BC
:100AC30001F0902392E03400F0902392E0F5F0904F
:100AD300105AE0B5F002800440175011902393E0C0
:100AE300F5F090105BE0B5F00280064004C21B8075
:100AF3000DD21B8009C21BE4902392F0A3F0301C9B
:100B030041201D47300344902395E0C32401F09016
:100B13002394E03400F0902394E0F5F090105CE02F
:100B2300B5F002800440175011902395E0F5F09042
:100B3300105DE0B5F00280064004C21D800DD21D99
:100B43008009C21DE4902394F0A3F0301E41201FBE
:100B530047300344902397E0C32401F0902396E0A9
:100B63003400F0902396E0F5F090105EE0B5F002CB
:100B7300800440175011902397E0F5F090105FE048
:100B8300B5F00280064004C21F800DD21F8009C247
:100B93001FE4902396F0A3F0302041202147300337
:100BA30044902399E0C32401F0902398E03400F0AB
:100BB300902398E0F5F0901060E0B5F002800440D7
:100BC300175011902399E0F5F0901061E0B5F00211
:100BD30080064004C221800DD2218009C221E49005
:100BE3002398F0A3F030224120234730034490237D
:100BF3009BE0C32401F090239AE03400F090239A01
:100C0300E0F5F0901062E0B5F00280044017501157
:100C130090239BE0F5F0901063E0B5F0028006406E
:100C230004C223800DD2238009C223E490239AF0C7
:100C3300A3F030244120254730034490239DE0C393
:100C43002401F090239CE03400F090239CE0F5F025
:100C5300901064E0B5F00280044017501190239D7A
:100C6300E0F5F0901065E0B5F00280064004C2257F
:100C7300800DD2258009C225E490239CF0A3F03097
:100C8300264120274730034490239FE0C32401F0EB
:100C930090239EE03400F090239EE0F5F0901066E0
:100CA300E0B5F00280044017501190239FE0F5F067
:100CB300901067E0B5F00280064004C227800DD291
:100CC300278009C227E490239EF0A3F03028412017
:100CD30029473003449023A1E0C32401F09023A0CB
:100CE300E03400F09023A0E0F5F0901068E0B5F058
:100CF300028004401750119023A1E0F5F090106991
:100D0300E0B5F00280064004C229800DD229800993
:100D1300C229E49023A0F0A3F0302A41202B4730CE
:100D230003449023A3E0C32401F09023A2E0340002
:100D3300F09023A2E0F5F090106AE0B5F002800491
:100D4300401750119023A3E0F5F090106BE0B5F03D
:100D53000280064004C22B800DD22B8009C22BE4F3
:100D63009023A2F0A3F0302C41202D473003449070
:100D730023A5E0C32401F09023A4E03400F09023E2
:100D8300A4E0F5F090106CE0B5F002800440175039
:100D9300119023A5E0F5F090106DE0B5F002800608
:100DA3004004C22D800DD22D8009C22DE49023A4CE
:100DB300F0A3F0302E41202F473003449023A7E0C7
:100DC300C32401F09023A6E03400F09023A6E0F5BD
:100DD300F090106EE0B5F00280044017501190239C
:100DE300A7E0F5F090106FE0B5F00280064004C272
:100DF3002F800DD22F8009C22FE49023A6F0A3F0F9
:100E03003030412031473003449023A9E0C324010B
:100E1300F09023A8E03400F09023A8E0F5F09010C0
:100E230070E0B5F0028004401750119023A9E0F55B
:100E3300F0901071E0B5F00280B94004C231800D2A
:100E4300D2318009C231E49023A8F0A3F030324FAD
:100E5300203355901072E0B40007A3E0B400028081
:100E63003A3003449023ABE0C32401F09023AAE07B
:100E73003400F09023AAE0F5F0901072E0B5F00290
:100E83008004401750119023ABE0F5F0901073E00D
:100E9300B5F00280064004C233800DD2338009C20C
:100EA30033E49023AAF0A3F03034412035473003D4
:100EB300449023ADE0C32401F09023ACE03400F070
:100EC3009023ACE0F5F0901074E0B5F0028004409C
:100ED3001750119023ADE0F5F0901075E0B5F002D6
:100EE30080064004C235800DD2358009C235E490B6
:100EF30023ACF0A3F030364120374730034490232E
:100F0300AFE0C32401F09023AEE03400F09023AEB1
:100F1300E0F5F0901076E0B5F00280044017501130
:100F23009023AFE0F5F0901077E0B5F00280064033
:100F330004C237800DD2378009C237E49023AEF064
:100F4300A3F03038412039473003449024E3E0C311
:100F53002401F09024E2E03400F09024E2E0F5F084
:100F63009010A0E0B5F0028004401750119024E3E4
:100F7300E0F5F09010A1E0B5F00280064004C2391C
:100F8300800DD2398009C239E49024E2F0A3F03015
:100F93003A41203B473003449024E5E0C32401F069
:100FA3009024E4E03400F09024E4E0F5F09010A203
:100FB300E0B5F0028004401750119024E5E0F5F00D
:100FC3009010A3E0B5F00280064004C23B800DD22E
:100FD3003B8009C23BE49024E4F0A3F0303C412081
:100FE3003D473003449024E7E0C32401F09024E616
:100FF300E03400F09024E6E0F5F09010A4E0B5F0C2
:10100300028004401750119024E7E0F5F09010A5FA
:10101300E0B5F00280064004C23D800DD23D800958
:10102300C23DE49024E6F0A3F0905FCEE030E03AD6
:1010330020E14E30034BC3902505E09401F0902549
:1010430004E09400F0401360028006902505E06000
:1010530009905FCEE0C2E1F08027905FCEE0D2E15D
:10106300F0E4902504F0A3F08017905FCEE0C2E196
:10107300F0902500E0FDA3E0902505F0902504ED18
:10108300F0905FCEE030E23A20E34E30034BC39062
:101093002507E09401F0902506E09400F0401360EA
:1010A300028006902507E06009905FCEE0C2E3F07E
:1010B3008027905FCEE0D2E3F0E4902506F0A3F022
:1010C3008017905FCEE0C2E3F0902502E0FDA3E03D
:1010D300902507F0902506EDF0905FCEE030E44CCC
:1010E30020E557300354C3902509E0C32401F09051
:1010F3002508E03400F0902508E0F5F090250CE099
:10110300B5F0028004401C5011902509E0F5F090E1
:10111300250DE0B5F002800B4009905FCEE0C2E5FB
:10112300F08017905FCEE0D2E5F0800E905FCEE0C6
:10113300C2E5F0E4902508F0A3F0905FCEE030E63E
:101143004C20E757300354C390250BE0C32401F030
:1011530090250AE03400F090250AE0F5F090250E82
:10116300E0B5F0028004401C501190250BE0F5F02F
:1011730090250FE0B5F002800B4009905FCEE0C2EE
:10118300E7F08017905FCEE0D2E7F0800E905FCE5D
:10119300E0C2E7F0E490250AF0A3F0905FC5E030E9
:1011A300E04B20E1563003539024B7E0C32401F011
:1011B3009024B6E03400F09024B6E0F5F090107877
:1011C300E0B5F0028004401C50119024B7E0F5F024
:1011D300901079E0B5F002800B4009905FC5E0C242
:1011E300E1F08017905FC5E0D2E1F0800E905FC51B
:1011F300E0C2E1F0E49024B6F0A3F0905FC5E030E4
:10120300E25920E36490107AE0B40007A3E0B4004D
:1012130002803F3003539024B9E0C32401F09024AB
:10122300B8E03400F09024B8E0F5F090107AE0B51F
:10123300F0028004401C50119024B9E0F5F09010A6
:101243007BE0B5F002800B4009905FC5E0C2E3F09C
:101253008017905FC5E0D2E3F0800E905FC5E0C2D7
:10126300E3F0E49024B8F0A3F0905FC5E030E459D4
:1012730020E56490107CE0B40007A3E0B400028092
:101283003F3003539024BBE0C32401F09024BAE021
:101293003400F09024BAE0F5F090107CE0B5F00251
:1012A3008004401C50119024BBE0F5F090107DE0C9
:1012B300B5F002800B4009905FC5E0C2E5F08017EE
:1012C300905FC5E0D2E5F0800E905FC5E0C2E5F027
:1012D300E49024BAF0A3F0905FC5E030E63A20E74B
:1012E3004E30034BC39024BDE09401F09024BCE046
:1012F3009400F04013600280069024BDE0600990E2
:101303005FC5E0C2E7F08027905FC5E0D2E7F0E475
:101313009024BCF0A3F08017905FC5E0C2E7F09083
:10132300107EE0FDA3E09024BDF09024BCEDF0908E
:101333005FC6E030E03A20E14E30034BC39024BF58
:10134300E09401F09024BEE09400F040136002802A
:10135300069024BFE06009905FC6E0C2E1F08027F9
:10136300905FC6E0D2E1F0E49024BEF0A3F08017D2
:10137300905FC6E0C2E1F0901080E0FDA3E090240E
:10138300BFF09024BEEDF0905FC6E030E25920E359
:1013930064901082E0B40007A3E0B40002803F3001
:1013A30003539024C1E0C32401F09024C0E034002F
:1013B300F09024C0E0F5F0901082E0B5F0028004D4
:1013C300401C50119024C1E0F5F0901083E0B5F07B
:1013D30002800B4009905FC6E0C2E3F08017905F84
:1013E300C6E0D2E3F0800E905FC6E0C2E3F0E49083
:1013F30024C0F0A3F0905FC6E030E45920E5649088
:101403001084E0B40007A3E0B40002803F3003532C
:101413009024C3E0C32401F09024C2E03400F09090
:1014230024C2E0F5F0901084E0B5F0028004401C83
:1014330050119024C3E0F5F0901085E0B5F00280E0
:101443000B4009905FC6E0C2E5F08017905FC6E0ED
:10145300D2E5F0800E905FC6E0C2E5F0E49024C2CE
:10146300F0A3F0905FC6E030E63A20E74E30034B3E
:10147300C39024C5E09401F09024C4E09400F040AC
:1014830013600280069024C5E06009905FC6E0C245
:10149300E7F08027905FC6E0D2E7F0E49024C4F041
:1014A300A3F08017905FC6E0C2E7F0901086E0FDDE
:1014B300A3E09024C5F09024C4EDF0905FC7E03022
:1014C300E03A20E14E30034BC39024C7E09401F08F
:1014D3009024C6E09400F04013600280069024C775
:1014E300E06009905FC7E0C2E1F08027905FC7E04A
:1014F300D2E1F0E49024C6F0A3F08017905FC7E038
:10150300C2E1F0901088E0FDA3E09024C7F090249E
:10151300C6EDF0905FC7E030E23A20E34E30034B74
:10152300C39024C9E09401F09024C8E09400F040F3
:1015330013600280069024C9E06009905FC7E0C28F
:10154300E3F08027905FC7E0D2E3F0E49024C8F093
:10155300A3F08017905FC7E0C2E3F090108AE0FD2C
:10156300A3E09024C9F09024C8EDF0905FC7E03069
:10157300E43A20E54E30034BC39024CBE09401F0D2
:101583009024CAE09400F04013600280069024CBBC
:10159300E06009905FC7E0C2E5F08027905FC7E095
:1015A300D2E5F0E49024CAF0A3F08017905FC7E07F
:1015B300C2E5F090108CE0FDA3E09024CBF09024E2
:1015C300CAEDF0905FC7E030E63A20E74E30034BB8
:1015D300C39024CDE09401F09024CCE09400F0403B
:1015E30013600280069024CDE06009905FC7E0C2DB
:1015F300E7F08027905FC7E0D2E7F0E49024CCF0D7
:10160300A3F08017905FC7E0C2E7F090108EE0FD73
:10161300A3E09024CDF09024CCEDF0905FC8E030AF
:10162300E04B20E1563003539024CFE0C32401F074
:101633009024CEE03400F09024CEE0F5F0901090AA
:10164300E0B5F0028004401C50119024CFE0F5F087
:10165300901091E0B5F002800B4009905FC8E0C2A2
:10166300E1F08017905FC8E0D2E1F0800E905FC890
:10167300E0C2E1F0E49024CEF0A3F0905FC8E03044
:10168300E24B20E3563003539024D1E0C32401F00E
:101693009024D0E03400F09024D0E0F5F090109244
:1016A300E0B5F0028004401C50119024D1E0F5F025
:1016B300901093E0B5F002800B4009905FC8E0C240
:1016C300E3F08017905FC8E0D2E3F0800E905FC82C
:1016D300E0C2E3F0E49024D0F0A3F0905FC8E030E0
:1016E300E44B20E5563003539024D3E0C32401F0A8
:1016F3009024D2E03400F09024D2E0F5F0901094DE
:10170300E0B5F0028004401C50119024D3E0F5F0C2
:10171300901095E0B5F002800B4009905FC8E0C2DD
:10172300E5F08017905FC8E0D2E5F0800E905FC8C7
:10173300E0C2E5F0E49024D2F0A3F0905FC8E0307B
:10174300E64B20E7563003539024D5E0C32401F041
:101753009024D4E03400F09024D4E0F5F090109677
:10176300E0B5F0028004401C50119024D5E0F5F060
:10177300901097E0B5F002800B4009905FC8E0C27B
:10178300E7F08017905FC8E0D2E7F0800E905FC863
:10179300E0C2E7F0E49024D4F0A3F0905FC9E03016
:1017A300E04B20E1563003539024D7E0C32401F0EB
:1017B3009024D6E03400F09024D6E0F5F090109811
:1017C300E0B5F0028004401C50119024D7E0F5F0FE
:1017D300901099E0B5F002800B4009905FC9E0C218
:1017E300E1F08017905FC9E0D2E1F0800E905FC90D
:1017F300E0C2E1F0E49024D6F0A3F0905FC9E030BA
:10180300E24B20E3563003539024D9E0C32401F084
:101813009024D8E03400F09024D8E0F5F090109AAA
:10182300E0B5F0028004401C50119024D9E0F5F09B
:1018330090109BE0B5F002800B4009905FC9E0C2B5
:10184300E3F08017905FC9E0D2E3F0800E905FC9A8
:10185300E0C2E3F0E49024D8F0A3F0905FC9E03055
:10186300E44B20E5563003539024DBE0C32401F01E
:101873009024DAE03400F09024DAE0F5F090109C44
:10188300E0B5F0028004401C50119024DBE0F5F039
:1018930090109DE0B5F002800B4009905FC9E0C253
:1018A300E5F08017905FC9E0D2E5F0800E905FC944
:1018B300E0C2E5F0E49024DAF0A3F0905FC9E030F1
:1018C300E64B20E7563003539024DDE0C32401F0B8
:1018D3009024DCE03400F09024DCE0F5F090109EDE
:1018E300E0B5F0028004401C50119024DDE0F5F0D7
:1018F30090109FE0B5F002800B4009905FC9E0C2F1
:10190300E7F08017905FC9E0D2E7F0800E905FC9DF
:10191300E0C2E7F0E49024DCF0A3F0905FCAE0308B
:10192300E04B20E1563003539024E9E0C32401F057
:101933009024E8E03400F09024E8E0F5F090101EE5
:10194300E0B5F0028004401C50119024E9E0F5F06A
:1019530090101FE0B5F002800B4009905FCAE0C20F
:10196300E1F08017905FCAE0D2E1F0800E905FCA89
:10197300E0C2E1F0E49024E8F0A3F0905FCAE03025
:10198300E24B20E3563003539024EBE0C32401F0F1
:101993009024EAE03400F09024EAE0F5F09010207F
:1019A300E0B5F0028004401C50119024EBE0F5F008
:1019B300901021E0B5F002800B4009905FCAE0C2AD
:1019C300E3F08017905FCAE0D2E3F0800E905FCA25
:1019D300E0C2E3F0E49024EAF0A3F0905FCAE030C1
:1019E300E44B20E5563003539024EDE0C32401F08B
:1019F3009024ECE03400F09024ECE0F5F090102219
:101A0300E0B5F0028004401C50119024EDE0F5F0A5
:101A1300901023E0B5F002800B4009905FCAE0C24A
:101A2300E5F08017905FCAE0D2E5F0800E905FCAC0
:101A3300E0C2E5F0E49024ECF0A3F0905FCAE0305C
:101A4300E64B20E7563003539024EFE0C32401F024
:101A53009024EEE03400F09024EEE0F5F0901024B2
:101A6300E0B5F0028004401C50119024EFE0F5F043
:101A7300901025E0B5F002800B4009905FCAE0C2E8
:101A8300E7F08017905FCAE0D2E7F0800E905FCA5C
:101A9300E0C2E7F0E49024EEF0A3F0905FCBE030F7
:101AA300E04B20E1563003539024F1E0C32401F0CE
:101AB3009024F0E03400F09024F0E0F5F09010264C
:101AC300E0B5F0028004401C50119024F1E0F5F0E1
:101AD300901027E0B5F002800B4009905FCBE0C285
:101AE300E1F08017905FCBE0D2E1F0800E905FCB06
:101AF300E0C2E1F0E49024F0F0A3F0905FCBE0309B
:101B0300E24B20E3563003539024F3E0C32401F067
:101B13009024F2E03400F09024F2E0F5F0901028E5
:101B2300E0B5F0028004401C50119024F3E0F5F07E
:101B3300901029E0B5F002800B4009905FCBE0C222
:101B4300E3F08017905FCBE0D2E3F0800E905FCBA1
:101B5300E0C2E3F0E49024F2F0A3F0905FCBE03036
:101B6300E44B20E5563003539024F5E0C32401F001
:101B73009024F4E03400F09024F4E0F5F090102A7F
:101B8300E0B5F0028004401C50119024F5E0F5F01C
:101B930090102BE0B5F002800B4009905FCBE0C2C0
:101BA300E5F08017905FCBE0D2E5F0800E905FCB3D
:101BB300E0C2E5F0E49024F4F0A3F0905FCBE030D2
:101BC300E64B20E7563003539024F7E0C32401F09B
:101BD3009024F6E03400F09024F6E0F5F090102C19
:101BE300E0B5F0028004401C50119024F7E0F5F0BA
:101BF30090102DE0B5F002800B4009905FCBE0C25E
:101C0300E7F08017905FCBE0D2E7F0800E905FCBD8
:101C1300E0C2E7F0E49024F6F0A3F0905FC0E03078
:101C2300E03A20E14E30034BC39023B1E09401F03E
:101C33009023B0E09400F04013600280069023B13B
:101C4300E06009905FC0E0C2E1F08027905FC0E0F0
:101C5300D2E1F0E49023B0F0A3F08017905FC0E0EE
:101C6300C2E1F0902480E0FDA3E09023B1F0902343
:101C7300B0EDF0905FC0E030E23A20E34E30034B2A
:101C8300C39023B3E09401F09023B2E09400F040BA
:101C930013600280069023B3E06009905FC0E0C246
:101CA300E3F08027905FC0E0D2E3F0E49023B2F04A
:101CB300A3F08017905FC0E0C2E3F0902482E0FDC0
:101CC300A3E09023B3F09023B2EDF0905FC0E03037
:101CD300E43A20E54E30034BC39023B5E09401F082
:101CE3009023B4E09400F04013600280069023B583
:101CF300E06009905FC0E0C2E5F08027905FC0E03C
:101D0300D2E5F0E49023B4F0A3F08017905FC0E035
:101D1300C2E5F0902484E0FDA3E09023B5F0902386
:101D2300B4EDF0905FC0E030E63A20E74E30034B6D
:101D3300C39023B7E09401F09023B6E09400F04001
:101D430013600280069023B7E06009905FC0E0C291
:101D5300E7F08027905FC0E0D2E7F0E49023B6F08D
:101D6300A3F08017905FC0E0C2E7F0902486E0FD07
:101D7300A3E09023B7F09023B6EDF0905FC1E0307D
:101D8300E03A20E14E30034BC39023B9E09401F0D5
:101D93009023B8E09400F04013600280069023B9CA
:101DA300E06009905FC1E0C2E1F08027905FC1E08D
:101DB300D2E1F0E49023B8F0A3F08017905FC1E084
:101DC300C2E1F0902488E0FDA3E09023B9F09023D2
:101DD300B8EDF0905FC1E030E23A20E34E30034BC0
:101DE300C39023BBE09401F09023BAE09400F04049
:101DF30013600280069023BBE06009905FC1E0C2DC
:101E0300E3F08027905FC1E0D2E3F0E49023BAF0DF
:101E1300A3F08017905FC1E0C2E3F090248AE0FD55
:101E2300A3E09023BBF09023BAEDF0905FC1E030C4
:101E3300E43A20E54E30034BC39023BDE09401F018
:101E43009023BCE09400F04013600280069023BD11
:101E5300E06009905FC1E0C2E5F08027905FC1E0D8
:101E6300D2E5F0E49023BCF0A3F08017905FC1E0CB
:101E7300C2E5F090248CE0FDA3E09023BDF0902315
:101E8300BCEDF0905FC1E030E63A20E74E30034B03
:101E9300C39023BFE09401F09023BEE09400F04090
:101EA30013600280069023BFE06009905FC1E0C227
:101EB300E7F08027905FC1E0D2E7F0E49023BEF023
:101EC300A3F08017905FC1E0C2E7F090248EE0FD9D
:101ED300A3E09023BFF09023BEEDF0905FC2E0300B
:101EE300E03A20E14E30034BC39024ADE09401F07F
:101EF3009024ACE09400F04013600280069024AD7F
:101F0300E06009905FC2E0C2E1F08027905FC2E029
:101F1300D2E1F0E49024ACF0A3F08017905FC2E02C
:101F2300C2E1F09024A0E0FDA3E09024ADF0902462
:101F3300ACEDF0905FC2E030E23A20E34E30034B69
:101F4300C39024AFE09401F09024AEE09400F040FD
:101F530013600280069024AFE06009905FC2E0C284
:101F6300E3F08027905FC2E0D2E3F0E49024AEF088
:101F7300A3F08017905FC2E0C2E3F09024A2E0FDDB
:101F8300A3E09024AFF09024AEEDF0905FC2E03078
:101F9300E43A20E54E30034BC39024B1E09401F0C2
:101FA3009024B0E09400F04013600280069024B1C6
:101FB300E06009905FC2E0C2E5F08027905FC2E075
:101FC300D2E5F0E49024B0F0A3F08017905FC2E074
:101FD300C2E5F09024A4E0FDA3E09024B1F09024A6
:101FE300B0EDF0905FC2E030E63A20E74E30034BAD
:101FF300C39024B3E09401F09024B2E09400F04045
:1020030013600280069024B3E06009905FC2E0C2CF
:10201300E7F08027905FC2E0D2E7F0E49024B2F0CB
:10202300A3F08017905FC2E0C2E7F09024A6E0FD22
:10203300A3E09024B3F09024B2EDF0905FC3E030BE
:10204300E03A20E14E30034BC39024DFE09401F0EB
:102053009024DEE09400F04013600280069024DFB9
:10206300E06009905FC3E0C2E1F08027905FC3E0C6
:10207300D2E1F0E49024DEF0A3F08017905FC3E098
:10208300C2E1F09024A8E0FDA3E09024DFF09024C7
:10209300DEEDF0905FC3E030E23A20E34E30034BD5
:1020A300C39024E1E09401F09024E0E09400F04038
:1020B30013600280069024E1E06009905FC3E0C2F0
:1020C300E3F08027905FC3E0D2E3F0E49024E0F0F4
:1020D300A3F08017905FC3E0C2E3F09024AAE0FD71
:1020E300A3E09024E1F09024E0EDF0905FC4E030B1
:1020F300E03A20E14E30034BC39023C3E09401F058
:102103009023C2E09400F04013600280069023C342
:10211300E06009905FC4E0C2E1F08027905FC4E013
:10212300D2E1F0E49023C2F0A3F08017905FC4E003
:10213300C2E1F0902490E0FDA3E09023C3F090234C
:10214300C2EDF0905FC4E030E23A20E34E30034B3F
:10215300C39023C5E09401F09023C4E09400F040C1
:1021630013600280069023C5E06009905FC4E0C25B
:10217300E3F08027905FC4E0D2E3F0E49023C4F05F
:10218300A3F08017905FC4E0C2E3F0902492E0FDD7
:10219300A3E09023C5F09023C4EDF0905FC4E0303A
:1021A300E43A20E54E30034BC39023C7E09401F09B
:1021B3009023C6E09400F04013600280069023C78A
:1021C300E06009905FC4E0C2E5F08027905FC4E05F
:1021D300D2E5F0E49023C6F0A3F08017905FC4E04B
:1021E300C2E5F0902494E0FDA3E09023C7F0902390
:1021F300C6EDF0905FC4E030E63A20E74E30034B83
:10220300C39023C9E09401F09023C8E09400F04008
:1022130013600280069023C9E06009905FC4E0C2A6
:10222300E7F08027905FC4E0D2E7F0E49023C8F0A2
:10223300A3F08017905FC4E0C2E7F0902496E0FD1E
:10224300A3E09023C9F09023C8EDF0905FCCE03079
:10225300E03A20E14E30034BC39023CFE09401F0EA
:102263009023CEE09400F04013600280069023CFC9
:10227300E06009905FCCE0C2E1F08027905FCCE0A2
:10228300D2E1F0E49023CEF0A3F08017905FCCE08E
:10229300C2E1F0902498E0FDA3E09023CFF09023D7
:1022A300CEEDF0905FCCE030E23A20E34E30034BCA
:1022B300C39023D1E09401F09023D0E09400F04048
:1022C30013600280069023D1E06009905FCCE0C2E6
:1022D300E3F08027905FCCE0D2E3F0E49023D0F0EA
:1022E300A3F08017905FCCE0C2E3F090249AE0FD66
:1022F300A3E09023D1F09023D0EDF0905FCCE030B9
:10230300E43A20E54E30034BC39023D3E09401F02D
:102313009023D2E09400F04013600280069023D310
:10232300E06009905FCCE0C2E5F08027905FCCE0ED
:10233300D2E5F0E49023D2F0A3F08017905FCCE0D5
:10234300C2E5F090249CE0FDA3E09023D3F090231A
:10235300D2EDF0905FCCE030E63A20E74E30034B0D
:10236300C39023D5E09401F09023D4E09400F0408F
:1023730013600280069023D5E06009905FCCE0C231
:10238300E7F08027905FCCE0D2E7F0E49023D4F02D
:10239300A3F08017905FCCE0C2E7F090249EE0FDAD
:1023A300A3E09023D5F09023D4EDF0905FCDE030FF
:1023B300E03A20E14E30034BC39023D7E09401F081
:1023C600E09400F04013600280069023D7E0600995
:1023D600905FCDE0C2E1F08027905FCDE0D2E1F0E2
:0123E600E412
:1023EA00F0A3F08017905FCDE0C2E1F09024FCE00A
:0723FA00FDA3E09023D7F0E2
:10240400EDF0905FCDE030E23A20E34E30034BC371
:102414009023D9E09401F09023D8E09400F0401385
:10242400600280069023D9E06009905FCDE0C2E3AA
:10243400F08027905FCDE0D2E3F0E49023D8F0A3BE
:10244400F08017905FCDE0C2E3F09024FEE0FDA39E
:10245400E09023D9F09023D8EDF02290250C747FDE
:10246400F090250D747FF090250E747FF090250F69
:10247400747FF0901056E0901088F0901057E09020
:102484001089F090106EE090108AF090106FE09038
:10249400108BF09024977414F0902496E4F0902418
:1024A40090F09024917432F0E4902492F09024936C
:1024B4007432F0E49024FCF09024FD7432F0E49043
:1024C40024FEF09024FF7432F0E4902500F090256F
:1024D400017432F0E4902502F09025037432F0E4A4
:1024E400902494F09024957432F0E490249AF0901F
:1024F400249B7432F09020907427F0902092F090F6
:102504002094F07410902091F0902093F0902095F6
:10251400F022905F44E0A2E39263905F43E0A2E381
:102524009260E0A2E19261E0A2E09262E0A2E29213
:1025340065E0A2E6926AE0A2E7926B205E07905FF4
:1025440043E0C2E0F0204809905F43E0C2E0F0C2FB
:1025540062206A07905FCEE0C2E4F0206B07905FD0
:10256400CEE0C2E6F0905F41E0A2E0B062926DA2DC
:102574004F825282518258825A8259826D5002C2CD
:102584006DA262824F82528251826A5002D264A248
:102594004F825282518262826482485002D210A2D7
:1025A40011B050826282647211B015927E905F42C3
:1025B400E0A2E3724CB062B050727E8248825982CB
:1025C40052826AB050B070905F00E092E2F0905F87
:1025D40000E0A2E2905FC8E092E0F0A25082528252
:1025E4004F82628264826AB06B927EA262826A8245
:1025F4006B822FB059727E927E5002D212A216B014
:1026040017826A826B927EA221826AB06B727E50BC
:1026140002C212A213824F825282508262821192AB
:102624007EA24F825282508262B068826B727E9226
:102634007E905F00E0A2E18262B060B023727E927D
:102644007E905F00E0A2E182628260B020727E929E
:102654007E905F42E0A2E0724BB062727EB05B8219
:1026640048826AB070905F00E092E1F0905F00E011
:10267400A2E1905FC8E092E2F0905F00E0A2E18204
:1026840062826A5002D222A22282628248826AB0A4
:1026940014501BD214C210902508E0902530F090FD
:1026A4002509E0902531F0905FCEE0C2E4F0A21558
:1026B4009216301507905FCEE0D2E4F0A217826242
:1026C4008265905FC7E092E0F0A22F8262826590FB
:1026D4005FC7E092E2F0A21682628265B017927E32
:1026E400A22E82628265B02F727E927E4025206582
:1026F40022A2168262B065B017B0675006B266D2E5
:10270400678010A22E8262B065B02FB0695004B207
:1027140066D269A2668216B0658262B017727E9232
:102724007EA266822EB0658262B02F727E927E9007
:102734005F42E0A2E7B062727E905F02E092E0F056
:10274400905FC7E0A2E082628265B0E1927E905F12
:10275400C7E0A2E282628265B0E3727E927EA22E1C
:102764008262B065B066B02F727E927EA2168262DB
:10277400B065B066B017727E927E905F41E0A2E1D0
:10278400B062727E905F00E092E5F0A215826282F0
:10279400239224301702C267A22D8262823B923CAC
:1027A400302F02C269A22582528262B051927EA267
:1027B40062824F8252B051B064727E927EA26DB03A
:1027C40062824FB051727E927E905F42E0A2E472C8
:1027D4004DB0628252B051727E8248826AB070906B
:1027E4005F00E092E3F0905F00E0A2E3905FC8E056
:1027F40092E4F0905F00E0A2E0905FC8E092E6F01F
:10280400A251822582629218A25182198262905F3B
:10281400C5E0B0E3905F40E0B0E0824E927EA2510A
:1028240082198262B021905FC5E0B0E1905F40E020
:1028340082E0B070824E727E927E905F42E0A2E2AD
:10284400724EB062B04F727E8248826A8251905F4B
:1028540000E092E4F0A262905F00E082E4905F40C6
:10286400E082E05007905FC5E0D2E0F0A2188262F7
:10287400905FC5E092E4F0A218905FC5E082E58223
:1028840062921AA21B82628251921CA21A8262B0C4
:102894001B824E927EA21E8262B01F824E727E9274
:1028A4007E905FC5E0A2E2B0E38262824E727E92C5
:1028B4007E905F42E0A2E6B062727E8248826A90B5
:1028C4005F00E092E6F0A21D8262921EA21F826265
:1028D4009220A24F8221825282628264B06B927EE5
:1028E400A24F8221825282628264826B822D727E26
:1028F400500BC214C222905FC5E0C2E0F0A2218254
:1029040062B06B927EA2218262826B8259727E9245
:102914007EA262B04FB064727E927E905F00E0A2AD
:10292400E08262727E927E905F42E0A2E1724A721D
:102934006DB062727EB04F826AB070905F00E092B8
:10294400E0F0A2218262824FB052905FC5E092E231
:10295400F0A2218262824FB052905FC5E082E3927E
:102964007EA251B062B052905F42E082E5727E92E4
:102974007EA26DB062824FB052727E826A905F40D6
:10298400E082E0B070905F03E092E2F0905F01E0DB
:10299400A2E382475002D271905F01E030E302C2A9
:1029A40073905F01E0A2E282465002D273905F010D
:1029B400E030E202C271905F00E0A2E28242500283
:1029C400D274905F00E030E202C272905F00E0A235
:1029D400E382435002D272905F00E030E302C2749B
:1029E400905F00E0A2E2B074905FC8E0B0E1927E34
:1029F400905F00E0A2E1905FC8E0B0E3727E927E57
:102A0400905F00E0A2E3B072905FC8E0B0E5727E30
:102A1400927E905F00E0A2E0B040905FC8E0B0E733
:102A2400727E927E905F01E0A2E2B073905FC9E093
:102A3400B0E1727E927E905F01E0A2E1B045905FCA
:102A4400C9E0B0E3727E927E905F01E0A2E3B071D0
:102A5400905FC9E0B0E5727E927E905F01E0A2E0F3
:102A6400B044905FC9E0B0E7727E927E905F00E070
:102A7400A2E4905F02E072E4905F03E072E472E229
:102A8400905F40E082E0727E905F01E092E7F09018
:102A94005F00E0A2E172E072E372E2927E905F0175
:102AA400E0A2E172E072E372E2727E927E905F00D5
:102AB400E0A2E4905F03E072E2905F01E072E490D0
:102AC4005F03E072E4905F40E082E0727E905F001A
:102AD400E092E7F0905F00E0A2E1B02372E072E3DD
:102AE40072E2927EA2E4905F03E072E2905F40E0C3
:102AF40082E0727E926F905F01E0A2E1B03B72E0EF
:102B040072E372E2927EA2E4905F03E072E4905F6B
:102B140040E082E0727E9270905FC4E0A2E7B382EC
:102B24003E823F905F02E092E7F0902508E0F5F0E6
:102B34009020C0E0C395F04013902509E0F5F09093
:102B440020C1E0C395F04004D23E8004C23E8026FA
:102B540090250AE0F5F09020C2E0C395F040ED9096
:102B6400250BE0F5F09020C3E0C395F040DED23FA2
:102B74008004C23F800020623AE4902530F0A3F044
:102B8400902532F0A3F0905FCEE0C2E4C2E6F0C23A
:102B940066C264C214C212C210C228C22CC22AC2A3
:102BA40068C222C26E905FC5E0C2E0F0905FC6E0EA
:102BB400C2E0F0A2484014C262C264C214C212C28B
:102BC40010C228C22CC22AC268C222A262825882BF
:102BD4005A8259826B8251B06A927EA26282588272
:102BE4005A8259826B826A82518217727E5002D253
:102BF40068A258825A8259826282688251824882CB
:102C04006B8215826A927EA258825A8259826282AB
:102C14006882518248826BB06A727E5002D228A2C6
:102C240029826282687229B02DB05F927E905F47DC
:102C3400E0A2E37255B062B05F727E824882518234
:102C44005A826BB06F905F01E092E2F0A262905FF3
:102C540001E082E2825F826B5002D26C905F01E0FD
:102C6400A2E2905FC9E092E0F0A25F8229825A82D8
:102C74005882628268826BB06A927EA262826A82A1
:102C84006B8217B051727E5002D22AA22EB02F82CC
:102C94006A826B927EA239B06A826B727E5002C2E3
:102CA4002AA22B82298258825A8262825F927E9063
:102CB4005F01E0A2E18262B060B03B727E927E90DE
:102CC4005F01E0A2E182628260B038727E927E90FF
:102CD4005F47E0A2E07254B062B03B727E824882E9
:102CE4006BB06F905F01E092E1F0905F01E0A2E1D0
:102CF400905FC9E092E2F0A22B8262826B5002D212
:102D04003AA23A82628248B02C501BD22CC228903C
:102D1400250AE0902532F090250BE0902533F090C1
:102D24005FCEE0C2E6F0A22D826B922E302D07908A
:102D34005FCEE0D2E6F0A22D8262823B826B923CAF
:102D4400302F02C269A23D825A8262B059927EA299
:102D54006DB062824F82518258B059727E927EA2C7
:102D6400628258825AB059B068727E927E905F47F0
:102D7400E0A2E47256B062825AB059727E824882EE
:102D84006BB06F905F01E092E3F0905F01E0A2E32B
:102D9400905FC9E092E4F0905F01E0A2E0905FC927
:102DA400E092E6F0A259822F82629230A2598231D7
:102DB4008262905FC6E0B0E3905F40E0B0E082578B
:102DC400927EA25982318262B039905FC6E0B0E14E
:102DD400905F40E082E0B06F8257727E927E905F97
:102DE40047E0A2E27257B062B058727E8248826BAA
:102DF4008259905F01E092E4F0A26282E4905F4025
:102E0400E082E05007905FC6E0D2E0F0A230826238
:102E1400905FC6E092E4F0A230905FC6E082E58263
:102E2400629232A231826282599234A2328262B0B8
:102E3400338257927EA2368262B0378257727E9274
:102E44007E905FC6E0A2E2B0E382628257727E9215
:102E54007E905F47E0A2E6B062727E8248826B9009
:102E64005F01E092E6F0A2358262826B9236A2376D
:102E74008262826B9238A2588239825A8262826854
:102E8400B06A927EA2588239825A82628268826AC9
:102E94008215727E500DC22CC23AC26C905FC6E09D
:102EA400C2E0F0A2398262B06A927EA23982628262
:102EB4006A8251727E927EA262B058B068727E922B
:102EC4007E905F01E0A2E08262727E927EA26DB08B
:102ED40062824F8251B058727E927E905F47E0A228
:102EE400E17253B062727EB058826BB06F905F0132
:102EF400E092E0F0A23982628258B05A905FC6E054
:102F040092E2F0A23982628258B05A905FC6E0829F
:102F1400E3927EA259B062B05A905F47E082E572B4
:102F24007E927EA26DB0628258B05A727E905F40EB
:102F3400E082E0B06F905F03E092E4F0A216B01775
:102F44005004C26E8008A217B0515002D26EA22E55
:102F5400B02F5004C26E8008A22FB0595002D26E16
:102F6400A26E82628263905FCAE092E0F0A26E82F7
:102F7400628263905FCAE082E192E2F0905FCAE00D
:102F8400A2E38262826392E4F0A2628263905FCAE7
:102F9400E082E592E6F0905FCAE0A2E78262826393
:102FA400905FCBE092E0F0A2628263905FCBE0821C
:102FB400E192E2F0905FCBE0A2E382628263905FF1
:102FC400CBE092E4F0A2628263905FCBE082E59270
:102FD400E6F0905FCAE0A2E1B0E382628263927E8F
:102FE400905FCBE0A2E1B0E382628263727E927E64
:102FF400905F44E0A2E2B062727E905F03E092E0F0
:10300400F0B39290905FCAE0A2E5B0E78262826377
:10301400927E905FCBE0A2E5B0E782628263727E2B
:10302400927E905F44E0A2E1B062727E905F03E022
:1030340092E1F0B392919023CAE0700AA3E0700683
:10304400A3E070028009D3905F03E092E3F022C30F
:10305400905F03E092E3F022902421E0FA90242090
:10306400E0540FFB78A079181208D3902441EEF0B5
:10307400902420E054804F902440F0902423E0FAE0
:10308400902422E0540FFB78A079181208D39024DE
:1030940043EEF0902422E054804F902442F0902498
:1030A40025E0FA902424E0540FFB78A07918120844
:1030B400D3902445EEF0902424E054804F9024448F
:1030C400F0902427E0FA902426E0540FFB78A079AE
:1030D400181208D3902447EEF0902426E054804F31
:1030E400902446F0902429E0FA902428E0540FFB21
:1030F40078A079181208D3902449EEF0902428E09F
:1031040054804F902448F090242BE0FA90242AE035
:10311400540FFB78A079181208D390244BEEF0904A
:10312400242AE054804F90244AF090242DE0FA9011
:10313400242CE0540FFB78A079181208D390244D66
:10314400EEF090242CE054804F90244CF090242FE7
:10315400E0FA90242EE0540FFB78A079181208D3DB
:1031640090244FEEF090242EE054804F90244EF0A3
:1031740022902442E0FBA3E0FA901041E0C39AFEBF
:10318400901040E09B5003C3803CEEB40503D38011
:10319400354003D38030120908902481F0C3FD74B4
:1031A400C89D902483F0E4902480F0902482F090D1
:1031B4005FC0E0A261B0E392E0A2E192E2F0905F2E
:1031C400C0E0A2E0B0E18249905F02E092E1F090B9
:1031D4002444E0F503A3E0F502901043E0C39AFE13
:1031E400901042E09B5003C3803CEEB40503D380AF
:1031F400354003D38030120908902485F0C3FD7450
:10320400C89D902487F0E4902484F0902486F09064
:103214005FC0E0A261B0E792E4A2E592E6F0905FBD
:10322400C0E0A2E4B0E58249905F02E092E2F0904F
:103234002446E0F503A3E0F502901045E0C39AFEAE
:10324400901044E09B5003C3803CEEB40503D3804C
:10325400354003D38030120908902489F0C3FD74EB
:10326400C89D90248BF0E4902488F090248AF090F8
:103274005FC1E0A261B0E392E0A2E192E2F0905F6C
:10328400C1E0A2E0B0E18249905F02E092E3F090F5
:103294002448E0F503A3E0F502901047E0C39AFE4A
:1032A400901046E09B5003C3803CEEB40503D380EA
:1032B400354003D3803012090890248DF0C3FD7487
:1032C400C89D90248FF0E490248CF090248EF0908C
:1032D4005FC1E0A261B0E792E4A2E592E6F0905FFC
:1032E400C1E0A2E4B0E58249905F02E092E4F0908C
:1032F400244AE0F503A3E0F502901049E0C39AFEE6
:10330400901048E09B5003C3803BEEB40503D38088
:10331400344003D3802F1209089024A1F0C3FD7414
:10332400C89D9024A3F0E49024A0F09024A2F090EF
:103334005FC2E0A2E3B392E0A2E192E2F0905FC246
:10334400E0A2E0B0E18249905F02E092E5F09024CF
:103354004CE0F503A3E0F50290104BE0C39AFE9015
:10336400104AE09B5003C3803CEEB40503D3803580
:103374004003D380301209089024A5F0C3FD74C81B
:103384009D9024A7F0E49024A4F09024A6F0905FEC
:10339400C2E0A261B0E792E4A2E592E6F0905FC2D7
:1033A400E0A2E4B0E58249905F02E092E6F0902466
:1033B4004EE0F503A3E0F50290104DE0C39AFE90B1
:1033C400104CE09B5003C3803CEEB40503D380351E
:1033D4004003D380301209089024A9F0C3FD74C8B7
:1033E4009D9024ABF0E49024A8F09024AAF0905F80
:1033F400C2E0A261B0E392E0A2E192E2F0905FC287
:10340400E0A2E0B0E182619293229020D1E0FD90AD
:103414001041E0C39DF504901040E09400500990E1
:103424005F46E0C2E0F08018F505902442E0F50321
:10343400A3E0F50212083CA278905F46E092E0F027
:103444009020D3E0FD901043E0C39DF5049010421A
:10345400E094005009905F46E0C2E1F08018F50561
:10346400902444E0F503A3E0F50212083CA278900E
:103474005F46E092E1F09020D5E0FD901045E0C376
:103484009DF504901044E094005009905F46E0C21A
:10349400E2F08018F505902446E0F503A3E0F50278
:1034A40012083CA278905F46E092E2F09020D7E0C8
:1034B400FD901047E0C39DF504901046E094005041
:1034C40009905F46E0C2E3F08018F505902448E0D7
:1034D400F503A3E0F50212083CA278905F46E0925F
:1034E400E3F09020D9E0FD901049E0C39DF50490ED
:1034F4001048E094005009905F46E0C2E4F0801860
:10350400F50590244AE0F503A3E0F50212083CA275
:1035140078905F46E092E4F09020DBE0FD90104B61
:10352400E0C39DF50490104AE094005009905F4672
:10353400E0C2E5F08018F50590244CE0F503A3E023
:10354400F50212083CA278905F46E092E5F09020E4
:10355400DDE0FD90104DE0C39DF50490104CE09427
:10356400005009905F46E0C2E6F08018F50590240B
:103574004CE0F503A3E0F50212083CA278905F4604
:10358400E092E6F0229023CBE0A248B392E0F090E0
:1035940023CDE0A25EB3826292E0F0A252B3905FC8
:1035A40000E0B0E4927EA2E48252727E905FC4E0B6
:1035B40092E0F0A262B052B064927EA24D724CB01E
:1035C40062B052727E927EA2117225B052727E92C5
:1035D4007E826A9023CBE092E3F0905F00E0A2E069
:1035E400B04F905FC4E092E2F0905F00E0A2E0B0E0
:1035F4004F905FC4E082E3927EA262B04FB06472E7
:103604007E826A9023CBE092E2F0905F00E0A2E336
:10361400B051905FC4E092E4F0905F00E0A2E3B0A8
:1036240051905FC4E082E5927EA2298262B0517219
:103634007E927E905F47E0A2E37255B062B0517211
:103644007E927EA262B051B064727E9023CBE092EF
:10365400E1F0905F00E0A2E2B050905FCEE092E033
:10366400F0905F00E0A2E2B050905FCEE082E18291
:103674006A9023CDE092E6F0A25AB3905F01E0B0E5
:10368400E4927EA2E4825A727E905FCCE092E6F0ED
:10369400A262B05AB068927EA2567255B062B05A15
:1036A400727E927EA229723DB05A727E927E9023DF
:1036B400CDE092E3F0905F01E0A2E3B059905FCCDB
:1036C400E092E2F0905F01E0A2E3B059905FCCE0B9
:1036D40082E3927EA2118262B059727E927E905FE2
:1036E40042E0A2E3724CB062B059727E927EA26252
:1036F400B059B068727E9023CDE092E1F0905F0102
:10370400E0A2E0B058905FCCE092E4F0905F01E07A
:10371400A2E0905FCCE0B05882E5927EA262B058FD
:10372400B068727E826B9023CDE092E2F0905F01EC
:10373400E0A2E1B05D905FCDE092E2F0905F01E045
:10374400A2E1B05D905FCDE082E3927E826B902334
:10375400CDE092E5F0905F01E0A2E2B05F905FCE31
:10376400E092E2F0905F01E0A2E2B05F905FCEE011
:1037740082E3826B9023CDE092E7F0905F46E0A273
:10378400E0905F45E082E0927E905F46E0A2E190A7
:103794005F45E082E1727E927E905F46E0A2E29015
:1037A4005F45E082E2727E927E905F46E0A2E39003
:1037B4005F45E082E3727E927E905F46E0A2E490F1
:1037C4005F45E082E4727E927E905F46E0A2E590DF
:1037D4005F45E082E5727E927E905FC4E092E6F0FF
:1037E400905F46E0A2E0905FC4E082E79023CBE0E4
:1037F40092E4F0905F46E0A2E1905FC4E082E7903B
:1038040023CBE092E5F0905F46E0A2E2905FC4E053
:1038140082E79023CBE092E6F0905F46E0A2E3904B
:103824005FC4E082E79023CBE092E7F0905F46E04C
:10383400A2E4905FC4E082E79023CAE092E0F090B3
:103844005F46E0A2E5905FC4E082E79023CAE0927D
:10385400E1F0A23E9023CAE092E4F0A23F9023CA92
:10386400E092E5F022E532853332F45533FFE53456
:1038740030E00FE49020B0F0A3F0E535C2E0F53578
:103884008035E53520E030EF5401602B9020B1E025
:103894002401F09020B0E03400F0902091E0F99001
:1038A40020B1E0C399902090E0F99020B0E09940D5
:1038B40006E535D2E0F535E53430E10FE49020B289
:1038C400F0A3F0E535C2E1F5358035E53520E1308A
:1038D400EF5402602B9020B3E02401F09020B2E07A
:1038E4003400F0902093E0F99020B3E0C399902045
:1038F40092E0F99020B2E0994006E535D2E1F53541
:10390400E53430E20FE49020B4F0A3F0E535C2E2F0
:10391400F5358035E53520E230EF5404602B9020F6
:10392400B5E02401F09020B4E03400F0902095E05C
:10393400F99020B5E0C399902094E0F99020B4E088
:10394400994006E535D2E2F535E53430E60FE490EA
:1039540020BCF0A3F0E535C2E6F5358035E5352029
:10396400E630EF5440602B9020BDE02401F090201D
:10397400BCE03400F090209DE0F99020BDE0C399B4
:1039840090209CE0F99020BCE0994006E535D2E611
:10399400F53522E533A221723992E1F533E535A2FA
:1039A400E1E53392E0F533E535A2E1E53492E1F562
:1039B40034E535A2E0E53492E0F534E533A2217232
:1039C4003992E2F533E535A2E2E53492E2F534E5E5
:1039D4001CC394324009E53392E6F533751C00228A
:0139E40022C0
:00000001FF
