:0300000002009269
:03000B000200618F
:1000230002072D75A80075890075880075980075FD
:100033008A00758C00758B00758D00750800750F2F
:10004300FF75B81022C200C201C205C2062243894D
:1000530001758ADF758CF9D28CD2A9D2AF22758A49
:10006300DF758CF9050A051C05370538D50F02D253
:100073000632438920758DFDD28E2275985043A890
:10008300901200752275984043A89012007522754E
:1000930081E0758E037400902305F0E536B45502B4
:1000A3008038905F007400F090E800F078007FFFE4
:1000B3007400F608DFFC7D80905FC0F0A3DDFC9048
:1000C300238874007E047DFAF0A3DDFCDEF8905FE4
:1000D30043E0C392E092E192E4F012002612005151
:1000E3001206F27536551206E01218581209371225
:1000F30008A312093E1209371221C31218A01206CF
:10010300E012093712087812233AE538C394605095
:100113000C7538001208D0121C49121D50120937F1
:10012300121F7112207A9023CAE0905FC4F09023CB
:10013300CBE0905FC5F0D2072006A5D2070200E608
:10014300C2ACC200900400A3A3A3E0B43102802692
:10015300A3E0B43303020183B436030201E9B431EB
:1001630003020249B43203020398B435030204E7DD
:10017300B4460B0205B3A3E0B4300302063101E336
:100183001207081207EB1207EBF50812071EA374F8
:1001930030F0A37433F0A3E508C333F0120807E586
:1001A30008C333FFC083C082901000E5822511F598
:1001B30082E5833510F583E0D082D08305115002A8
:1001C3000510120807DFDDE50875F004A42406FF17
:1001D300900500A31207C1E50875F004A42407FFE6
:1001E30012078E0206D01207081207EBF5F0C08340
:1001F300C082901000E582C32511F582E583351096
:10020300F583E5F0F0D082D0831207EBF5F0901080
:1002130001E582C32511F582E5833510F583E5F009
:10022300F0750800900400E508C32582F582E0F527
:10023300F0900500E508C32582F582E5F0F0050896
:10024300B40AE10206D0751A00A31207EB75F02079
:10025300A4F5101207EB75F00884C32510F511E51A
:10026300F0C3FD1207EB1207EBF50812071EA37488
:1002730030F0A37431F0A3C202E508C39409500916
:100283007401F51A120807801ED202E50875F008FA
:1002930084F508E5F0B40004E5088003E50804F5F7
:1002A3001A120807E5F0FFE508B401005031743075
:1002B300F0A3C083C082905F00E5822511F582E53B
:1002C300833400F583E0C3BD00031380041D138052
:1002D300F650067431F00203797430F0020379208A
:1002E300021EC083C082905F00E5822511F582E57E
:1002F300833400F583E0F510E508D082D08380399C
:10030300C083C082905F00E5822511F582E58334C6
:1003130000F583E0FDA3E0FEE511C32401F511E53B
:10032300103400F510EDD082D083120807E50814CD
:10033300F508B401CBEEF510EFB40206E510540353
:100343006176B40306E51054076176B40406E5103C
:10035300540F6176B40506E510541F6176B40606A2
:10036300E510543F6176B40706E510547F6176E5E6
:100373001054FF120807900500A3E51A75F002A4B4
:100383002406FF1207C1E51A75F002A42407FF1221
:10039300078E0206D0751A00A31207EB75F020A48E
:1003A300F5101207EB75F00884C32510F511E5F07D
:1003B300C3FD1207EB1207EBF50812071EA37430F7
:1003C300F0A37432F0A3C202E508C3940950097480
:1003D30001F51A120807801ED202E50875F0088499
:1003E300F508E5F0B40004E5088003E50804F51A10
:1003F300120807E5F0FFE508B4010050317430F04E
:10040300A3C083C082900F00E5822511F582E583A6
:100413003400F583E0C3BD00031380041D1380F68D
:1004230050067431F00204C87430F00204C820028C
:100433001EC083C082900F00E5822511F582E583FB
:100443003400F583E0F510E508D082D0838039C00D
:1004530083C082900F00E5822511F582E583340085
:10046300F583E0FDA3E0FEE511C32401F511E510DA
:100473003400F510EDD082D083120807E50814F597
:1004830008B401CBEEF510EFB40206E51054038176
:10049300C5B40306E510540781C5B40406E510543A
:1004A3000F81C5B40506E510541F81C5B40606E5E2
:1004B30010543F81C5B40706E510547F81C5E5108C
:1004C30054FF120807900500A3E51A75F002A4244F
:1004D30006FF1207C1E51A75F002A42407FF1207ED
:1004E3008E0206D0A31207EBF51075F020A4F510C9
:1004F3001207EB75F00884C32510F511E5F0C3FD71
:100503001207EBF5F0905F00E5822511F582E58394
:100513003400F583E0F510E5F0B4FF37E510BD00D6
:1005230004D2E08063BD0104D2E1805CBD0204D249
:10053300E28055BD0304D2E3804EBD0404D2E480BF
:1005430047BD0504D2E58040BD0604D2E68039D21A
:10055300E78035E510BD0004C2E0802CBD0104C274
:10056300E18025BD0204C2E2801EBD0304C2E38014
:1005730017BD0404C2E48010BD0504C2E58009BDB3
:100583000604C2E68002C2E7F07508007F0F9004FC
:1005930000E508C32582F582E0F5F0900500E50843
:1005A300C32582F582E5F0F00508B40AE10206D01E
:1005B300A31207EBF51B75F020A4F5101207EBF55A
:1005C3001A75F00884C32510F5111207EB1207EB17
:1005D3001207EBC333F508FF78801207EBF608DF49
:1005E300F9905F00E5822511F582E5833400F583F8
:1005F300AF087880E6F0A308DFFA7F0D7508009056
:100603000400E508C32582F582E0F5F0900500E5D6
:1006130008C32582F582E5F0F00508DFE27F0C9040
:100623000500A31207C17F0D12078E0206D0120721
:10063300081207EB1207EBFD1207EB1207EBF5F0BD
:10064300C083C082901000E582C32511F582E58343
:100653003510F583E5F0F0D082D0831207EBF5F087
:10066300C083C082901000E511C32401F511E58217
:100673002511F582E5103400F510E583C32510F547
:1006830083E5F0F0D082D083E511C32401F511E5B1
:10069300103400DDA6750800900400E508C3258228
:1006A300F582E0F5F0900500E508C32582F582E5C3
:1006B300F0F0E508C32401F508B40DDC7F0C9005C8
:1006C30000A31207C17F0D12078E0206D012008805
:1006D3007400F508120767750FFFC2062220060B88
:1006E30020000420010522120143221206F222C235
:1006F300ACC205C2011200487400F50812007EC2A4
:1007030006750FFF22A31207EBC333F5101207EB95
:10071300C333F511E5103400F51022900500743A47
:10072300F0A37430F0A37431F02220990420980DC3
:1007330032300505D201C2993212076732C0D0C0E8
:1007430083C082C0E0900400E582C32508F582E5FA
:1007530099F00508B40A02D200D0E0D082D083D049
:10076300D0C29832C0D0C0E0C083C082C299900585
:1007730000C3E5822508F582E0F5990508B40A026D
:10078300D205D082D083D0E0D0D022900500E5827C
:100793002FF582E5833400F583E50DF0A3E50EF034
:1007A300A3740DF0A3740AF0229007B193223031A1
:1007B3003233343536373839414243444546EFC343
:1007C30003FF7400F5F0E01207EBC325F0DFF5F447
:1007D30004F50C850C0954F0C41207ACF50DE509BA
:1007E300540F1207ACF50E22E0C39430B40A004054
:1007F300029407C4FAA3E0A3C39430B40A004002EE
:1008030094074A22C0E054F0C42430B43A004002B2
:100813002407F0A3D0E0540F2430B43A004002245C
:1008230007F0A322C37F107C007D00E51A33F51A7D
:10083300E51B33F51BEC33FCF510ED33FDF511EC43
:100843009AFCED9BFDB34006E510FCE511FDDFDBF3
:10085300E51A33F51AE51B33F51B22C278C279C2B8
:100863007AEAC39CFEEB9D5003D278224E7003D2EA
:100873007922D27A22200705E4D2B58022C2B57844
:1008830027E6905F00F090E800F0782CE6905F0197
:10089300F090E801F0E530905F02F090E802F0227A
:1008A300E537C39432502575370090F800E0F4FA29
:1008B300551EF529EAF51EA3E0F4FA551FF52AEAB9
:1008C300F51F900F00E529F0E52AA3F02290F81810
:1008D300E0FC90F819E0FD5470C4F531ED540FFDC0
:1008E300ECFC902420E5312531F8E582C328F5821C
:1008F300EDF0A3ECF02275F010E4FFFEFDFCC3EA7B
:1009030033FAEB33FB5010EC28FCED39FDEE3400E9
:10091300FEEF3400FF4004D5F002C322C3EC33FCE6
:10092300ED33FDEE33FEEF33FF80D4048322002842
:100933005078A0C8E5C0D2E1F5C022E50AC3C203DE
:10094300B40A004009D27FD203C3940AF50A3010D7
:1009530041201147300344902389E0C32401F090E0
:100963002388E03400F0902388E0F5F0901050E005
:10097300B5F002800440175011902389E0F5F09000
:100983001051E0B5F00280064004C211800DD2116F
:100993008009C211E4902388F0A3F030124220139F
:1009A30048300345C390238BE0C32401F090238A8E
:1009B300E03400F090238AE0F5F0901052E0B5F0B7
:1009C3000280044017501190238BE0F5F0901053F0
:1009D300E0B5F00280064004C213800DD2138009F3
:1009E300C213E490238AF0A3F0301441201547305A
:1009F300034490238DE0C32401F090238CE0340062
:100A0300F090238CE0F5F0901054E0B5F0028004F0
:100A13004017501190238DE0F5F0901055E0B5F09C
:100A23000280064004C215800DD2158009C215E468
:100A330090238CF0A3F030164120174730034490E5
:100A4300238FE0C32401F090238EE03400F0902341
:100A53008EE0F5F0901056E0B5F002800440175098
:100A63001190238FE0F5F0901057E0B5F002800667
:100A73004004C217800DD2178009C217E490238E59
:100A8300F0A3F0301841201947300344902391E03C
:100A9300C32401F0902390E03400F0902390E0F51C
:100AA300F0901058E0B5F0028004401750119023E5
:100AB30091E0F5F0901059E0B5F00280064004C2D1
:100AC30019800DD2198009C219E4902390F0A3F084
:100AD300301A41201B47300344902393E0C3240181
:100AE300F0902392E03400F0902392E0F5F0901020
:100AF3005AE0B5F002800440175011902393E0F5BB
:100B0300F090105BE0B5F00280064004C21B800D3C
:100B1300D21B8009C21BE4902392F0A3F0301C4146
:100B2300201D47300344902395E0C32401F0902314
:100B330094E03400F0902394E0F5F090105CE0B57D
:100B4300F002800440175011902395E0F5F09010C7
:100B53005DE0B5F00280064004C21D800DD21D8009
:100B630009C21DE4902394F0A3F0301E41201F47D7
:100B7300300344902397E0C32401F0902396E0349C
:100B830000F0902396E0F5F090105EE0B5F002805F
:100B93000440175011902397E0F5F090105FE0B5F3
:100BA300F00280064004C21F800DD21F8009C21FBD
:100BB300E4902396F0A3F0302041202147300344F2
:100BC300902399E0C32401F0902398E03400F0903F
:100BD3002398E0F5F0901060E0B5F0028004401730
:100BE3005011902399E0F5F0901061E0B5F0028088
:100BF300064004C221800DD2218009C221E4902342
:100C030098F0A3F030224120234730034490239BE4
:100C1300E0C32401F090239AE03400F090239AE09B
:100C2300F5F0901062E0B5F0028004401750119087
:100C3300239BE0F5F0901063E0B5F00280064004DA
:100C4300C223800DD2238009C223E490239AF0A308
:100C5300F030244120254730034490239DE0C324F2
:100C630001F090239CE03400F090239CE0F5F09099
:100C73001064E0B5F00280044017501190239DE00A
:100C8300F5F0901065E0B5F00280064004C22580BF
:100C93000DD2258009C225E490239CF0A3F03026D1
:100CA3004120274730034490239FE0C32401F09061
:100CB300239EE03400F090239EE0F5F0901066E070
:100CC300B5F00280044017501190239FE0F5F09097
:100CD3001067E0B5F00280064004C227800DD227DA
:100CE3008009C227E490239EF0A3F03028412029F5
:100CF300473003449023A1E0C32401F09023A0E0F4
:100D03003400F09023A0E0F5F0901068E0B5F00215
:100D13008004401750119023A1E0F5F0901069E092
:100D2300B5F00280064004C229800DD2298009C291
:100D330029E49023A0F0A3F0302A41202B4730036D
:100D4300449023A3E0C32401F09023A2E03400F0F5
:100D53009023A2E0F5F090106AE0B5F00280044021
:100D63001750119023A3E0F5F090106BE0B5F0025B
:100D730080064004C22B800DD22B8009C22BE49045
:100D830023A2F0A3F0302C41202D473003449023BD
:100D9300A5E0C32401F09023A4E03400F09023A441
:100DA300E0F5F090106CE0B5F002800440175011AC
:100DB3009023A5E0F5F090106DE0B5F002800640B9
:100DC30004C22D800DD22D8009C22DE49023A4F0FE
:100DD300A3F0302E41202F473003449023A7E0C3D4
:100DE3002401F09023A6E03400F09023A6E0F5F070
:100DF30090106EE0B5F0028004401750119023A7C5
:100E0300E0F5F090106FE0B5F00280064004C22FC9
:100E1300800DD22F8009C22FE49023A6F0A3F030D7
:100E2300301430031A9023A9E0C32401F09023A8BF
:100E3300E03400F08009C231E49023A8F0A3F0303D
:100E430032412033473003449023ABE0C32401F005
:100E53009023AAE03400F09023AAE0F5F0901072FA
:100E6300E0B5F0028004401750119023ABE0F5F099
:100E7300901073E0B5F00280064004C233800DD2B7
:100E8300338009C233E49023AAF0A3F03034412025
:100E930035473003449023ADE0C32401F09023ACE5
:100EA300E03400F09023ACE0F5F0901074E0B5F07E
:100EB300028004401750119023ADE0F5F0901075B7
:100EC300E0B5F00280064004C235800DD2358009BA
:100ED300C235E49023ACF0A3F030364120374730DD
:100EE30003449023AFE0C32401F09023AEE0340029
:100EF300F09023AEE0F5F0901076E0B5F0028004B8
:100F0300401750119023AFE0F5F0901077E0B5F063
:100F13000280064004C237800DD2378009C237E40D
:100F23009023AEF0A3F0304041204147300344907A
:100F330024B7E0C32401F09024B6E03400F09024F9
:100F4300B6E0F5F0901078E0B5F002800440175059
:100F5300119024B7E0F5F0901079E0B5F002800627
:100F63004004C241800DD2418009C241E49024B6BD
:100F7300F0A3F03042412043473003449024B9E0CA
:100F8300C32401F09024B8E03400F09024B8E0F5D5
:100F9300F090118EE0B5F0028004401750119024B8
:100FA300B9E0F5F090118FE0B5F00280064004C27D
:100FB30043800DD2438009C243E49024B8F0A3F0E8
:100FC300905FC7E030E04B20E1563003539024BBE1
:100FD300E0C32401F09024BAE03400F09024BAE096
:100FE300F5F090107EE0B5F0028004401C501190A3
:100FF30024BBE0F5F090107FE0B5F002800B4009D0
:10100300905FC7E0C2E1F08017905FC7E0D2E1F0E4
:10101300800E905FC7E0C2E1F0E49024BAF0A3F041
:10102300905FC7E030E24B20E3563003539024BD7A
:10103300E0C32401F09024BCE03400F09024BCE031
:10104300F5F0901080E0B5F0028004401C50119040
:1010530024BDE0F5F0901081E0B5F002800B40096B
:10106300905FC7E0C2E3F08017905FC7E0D2E3F080
:10107300800E905FC7E0C2E3F0E49024BCF0A3F0DD
:10108300905FC7E030E44B20E5563003539024BF14
:10109300E0C32401F09024BEE03400F09024BEE0CD
:1010A300F5F0901082E0B5F0028004401C501190DE
:1010B30024BFE0F5F0901083E0B5F002800B400907
:1010C300905FC7E0C2E5F08017905FC7E0D2E5F01C
:1010D300800E905FC7E0C2E5F0E49024BEF0A3F079
:1010E300905FC7E030E64B20E7563003539024C1AE
:1010F300E0C32401F09024C0E03400F09024C0E069
:10110300F5F0901084E0B5F0028004401C5011907B
:1011130024C1E0F5F0901085E0B5F002800B4009A2
:10112300905FC7E0C2E7F08017905FC7E0D2E7F0B7
:10113300800E905FC7E0C2E7F0E49024C0F0A3F014
:10114300905FC8E030E04B20E1563003539024C356
:10115300E0C32401F09024C2E03400F09024C2E004
:10116300F5F0901086E0B5F0028004401C50119019
:1011730024C3E0F5F0901087E0B5F002800B40093E
:10118300905FC8E0C2E1F08017905FC8E0D2E1F061
:10119300800E905FC8E0C2E1F0E49024C2F0A3F0B7
:1011A300905FC8E030E24B20E3563003539024C5F0
:1011B300E0C32401F09024C4E03400F09024C4E0A0
:1011C300F5F0901088E0B5F0028004401C501190B7
:1011D30024C5E0F5F0901089E0B5F002800B4009DA
:1011E300905FC8E0C2E3F08017905FC8E0D2E3F0FD
:1011F300800E905FC8E0C2E3F0E49024C4F0A3F053
:10120300905FC8E030E44B20E5563003539024C789
:10121300E0C32401F09024C6E03400F09024C6E03B
:10122300F5F090108AE0B5F0028004401C50119054
:1012330024C7E0F5F090108BE0B5F002800B400975
:10124300905FC8E0C2E5F08017905FC8E0D2E5F098
:10125300800E905FC8E0C2E5F0E49024C6F0A3F0EE
:10126300905FC8E030E64B20E7563003539024C923
:10127300E0C32401F09024C8E03400F09024C8E0D7
:10128300F5F090108CE0B5F0028004401C501190F2
:1012930024C9E0F5F090108DE0B5F002800B400911
:1012A300905FC8E0C2E7F08017905FC8E0D2E7F034
:1012B300800E905FC8E0C2E7F0E49024C8F0A3F08A
:1012C300E51CC3C208B464004007D208C39464F5A4
:1012D3001C300800905FC0E030E03A20E14E300857
:1012E3004BC39023B1E09401F09023B0E09400F05D
:1012F3004013600280069023B1E06009905FC0E074
:10130300C2E1F08027905FC0E0D2E1F0E49023B027
:10131300F0A3F08017905FC0E0C2E1F0902480E07A
:10132300FDA3E09023B1F09023B0EDF0905FC0E017
:1013330030E23A20E34E30084BC39023B3E09401EC
:10134300F09023B2E09400F04013600280069023F3
:10135300B3E06009905FC0E0C2E3F08027905FC014
:10136300E0D2E3F0E49023B2F0A3F08017905FC0E3
:10137300E0C2E3F0902482E0FDA3E09023B3F09079
:1013830023B2EDF0905FC0E030E43A20E54E300840
:101393004BC39023B5E09401F09023B4E09400F0A4
:1013A3004013600280069023B5E06009905FC0E0BF
:1013B300C2E5F08027905FC0E0D2E5F0E49023B46B
:1013C300F0A3F08017905FC0E0C2E5F0902484E0C2
:1013D300FDA3E09023B5F09023B4EDF0905FC0E05F
:1013E30030E63A20E74E30084BC39023B7E0940130
:1013F300F09023B6E09400F040136002800690233F
:10140300B7E06009905FC0E0C2E7F08027905FC05B
:10141300E0D2E7F0E49023B6F0A3F08017905FC02A
:10142300E0C2E7F0902486E0FDA3E09023B7F090BC
:1014330023B6EDF0905FC1E030E03A20E14E300892
:101443004BC39023B9E09401F09023B8E09400F0EB
:101453004013600280069023B9E06009905FC1E009
:10146300C2E1F08027905FC1E0D2E1F0E49023B8BD
:10147300F0A3F08017905FC1E0C2E1F0902488E010
:10148300FDA3E09023B9F09023B8EDF0905FC1E0A5
:1014930030E23A20E34E30084BC39023BBE0940183
:1014A300F09023BAE09400F040136002800690238A
:1014B300BBE06009905FC1E0C2E3F08027905FC1A9
:1014C300E0D2E3F0E49023BAF0A3F08017905FC179
:1014D300E0C2E3F090248AE0FDA3E09023BBF09008
:1014E30023BAEDF0905FC1E030E43A20E54E3008D6
:1014F3004BC39023BDE09401F09023BCE09400F033
:101503004013600280069023BDE06009905FC1E054
:10151300C2E5F08027905FC1E0D2E5F0E49023BC00
:10152300F0A3F08017905FC1E0C2E5F090248CE057
:10153300FDA3E09023BDF09023BCEDF0905FC1E0EC
:1015430030E63A20E74E30084BC39023BFE09401C6
:10155300F09023BEE09400F04013600280069023D5
:10156300BFE06009905FC1E0C2E7F08027905FC1F0
:10157300E0D2E7F0E49023BEF0A3F08017905FC1C0
:10158300E0C2E7F090248EE0FDA3E09023BFF0904B
:1015930023BEEDF0905FC2E030E03A20E14E300828
:1015A3004BC39024ADE09401F09024ACE09400F0A0
:1015B3004013600280069024ADE06009905FC2E0B2
:1015C300C2E1F08027905FC2E0D2E1F0E49024AC66
:1015D300F0A3F08017905FC2E0C2E1F09024A0E096
:1015E300FDA3E09024ADF09024ACEDF0905FC2E059
:1015F30030E23A20E34E30084BC39024AFE094012D
:10160300F09024AEE09400F0401360028006902432
:10161300AFE06009905FC2E0C2E3F08027905FC251
:10162300E0D2E3F0E49024AEF0A3F08017905FC221
:10163300E0C2E3F09024A2E0FDA3E09024AFF09099
:1016430024AEEDF0905FC2E030E43A20E54E30087E
:101653004BC39024B1E09401F09024B0E09400F0E7
:101663004013600280069024B1E06009905FC2E0FD
:10167300C2E5F08027905FC2E0D2E5F0E49024B0A9
:10168300F0A3F08017905FC2E0C2E5F09024A4E0DD
:10169300FDA3E09024B1F09024B0EDF0905FC2E0A0
:1016A30030E63A20E74E30084BC39024B3E0940170
:1016B300F09024B2E09400F040136002800690247E
:1016C300B3E06009905FC2E0C2E7F08027905FC299
:1016D300E0D2E7F0E49024B2F0A3F08017905FC269
:1016E300E0C2E7F09024A6E0FDA3E09024B3F090DD
:1016F30024B2EDF0905FC3E030E03A20E14E3003D6
:101703004BC39023C3E09401F09023C2E09400F014
:101713004013600280069023C3E06009905FC3E03A
:10172300C2E1F08027905FC3E0D2E1F0E49023C2EE
:10173300F0A3F08017905FC3E0C2E1F0902490E043
:10174300FDA3E09023C3F09023C2EDF0905FC3E0CC
:1017530030E23A20E34E30034BC39023C5E09401BB
:10176300F09023C4E09400F04013600280069023BD
:10177300C5E06009905FC3E0C2E3F08027905FC3D8
:10178300E0D2E3F0E49023C4F0A3F08017905FC3AA
:10179300E0C2E3F0902492E0FDA3E09023C5F09033
:1017A30023C4EDF0905FC3E030E43A20E54E30030C
:1017B3004BC39023C7E09401F09023C6E09400F05C
:1017C3004013600280069023C7E06009905FC3E086
:1017D300C2E5F08027905FC3E0D2E5F0E49023C632
:1017E300F0A3F08017905FC3E0C2E5F0902494E08B
:1017F300FDA3E09023C7F09023C6EDF0905FC3E014
:1018030030E63A20E74E30034BC39023C9E09401FE
:10181300F09023C8E09400F0401360028006902308
:10182300C9E06009905FC3E0C2E7F08027905FC31F
:10183300E0D2E7F0E49023C8F0A3F08017905FC3F1
:10184300E0C2E7F0902496E0FDA3E09023C9F09076
:1018530023C8EDF0229024977464F0902496E4F06A
:10186300902490F09024917432F0E4902492F090BC
:1018730024937432F0E4902494F09024957432F01D
:101883009010907427F0901092F0901094F07410D0
:10189300901091F0901093F0901095F022A242B026
:1018A30043927E905F40E0A2E0727E905F44E082CC
:1018B300E19261905F43E0A2E39258E0A2E1925982
:1018C300E0A2E0925AE0A2E2925D905F43E0A2E7D9
:1018D3009269901056E0F5F0A3E090106FF0E5F0F8
:1018E30090106EF0A25A8248824D5002D25CA248F8
:1018F300824D825A825C824A922CA23BB04C825A1D
:10190300825C722D927E905F42E0A2E37252B05AE3
:10191300B04C727E824A923BA23B9222A23B825AF5
:101923005002D210A24C8248825A825C5002D212D8
:10193300A2138248825AB021927EA238825AB057AB
:10194300727E927E905F42E0A2E07250B05AB0572E
:10195300727E824A9238A2389224A213825A92400B
:10196300A213825A824A501DD214A214B0155015E4
:101973003030129023A8E09023C0F09023A9E09088
:1019830023C1F0C230A216B0175002D230A2159272
:10199300165002D228A214B0155002C228A22992CE
:1019A3002AA216825A825DB017927E205D16A21675
:1019B300825AB05DB017B05F5004B25ED25FA25ED0
:1019C300727E927E905F42E0A2E7B05A727E923DB1
:1019D300A215825A82579236A2378249825AB04D53
:1019E300927EA25A82488249B04DB05C727E927E4A
:1019F300905F42E0A2E47253B05A8249B04D727EC6
:101A0300824A923CA23C9226A24D8217825A921895
:101A1300A24D8219825AB0485004D268800CA25A4F
:101A2300824C8257A05A5002C268A268825A927EA0
:101A3300905F42E0A2E27255B05A727E824A923AB5
:101A4300A219825A921AA21B825A824D921CA21A7E
:101A5300825AB01B927EA21E825AB01F727E927E61
:101A6300905F42E0A2E6B05A727E824A923FA21D84
:101A7300825A921EA21F825A9220905F43E0A2E5EF
:101A8300825A821F9232A233825A9234A234B035E0
:101A9300927E905F44A2E0B05A727E9291A24882F5
:101AA30039825A825C5006C210C214C212A2218229
:101AB3005A727EA04A927EA25AB048B05C727E925D
:101AC3007EA239825A727E927E905F42E0A2E172D8
:101AD30051B05A727EB0489239A23BB023927EA293
:101AE30038B025727E927EA23CB027727E72399204
:101AF3003EA238B0417239723C723B9260A25A8264
:101B03001F82695007905FC7E0D2E0F0905FC7E0A3
:101B1300A2E1825A92E2F0905FC7E0A2E1825AB05A
:101B2300E3927E905F44E0A2E2B05A727E824AE57D
:101B33003092E0F530A25A821F82695007905FC746
:101B4300E0D2E4F0905FC7E0A2E5825A92E6F0901B
:101B53005FC7E0A2E5825AB0E7927E905F44E0A2BD
:101B6300E3B05A727E824AE53092E1F530A25A829E
:101B730069905FC7E082E75007905FC8E0D2E0F06A
:101B8300905FC8E0A2E1825A92E2F0905FC8E0A2BF
:101B9300E1825AB0E3927E905F44E0A2E4B05A72CD
:101BA3007E824AE53092E2F530905FC8E0A2E3B06E
:101BB3001F500BC2E0C2E2F0905FC7E0E4F0A25A0C
:101BC30082165007905FC8E0D2E4F0905FC8E0A2AD
:101BD300E5825A92E6F0905FC8E0A2E5825AB0E748
:101BE300927E905F44E0A2E5B05A727E824AE5306D
:101BF30092E3F530905FC8E0A2E7B0165003C2E469
:101C0300F0905F43E0A2E4905FC3E0B0E75004D2FA
:101C1300678009905F43E030E602C267201602C284
:101C23005F205A13C210C25EC25CC214C212C23019
:101C3300E4905FC7F0A3F0A24A400AC25CC210C29C
:101C430014C25EC21222E531B4001E902421E0FAD0
:101C5300902420E0540FFB78A079181208F99024FF
:101C630041EEF0902440EFF022B4011E902423E0D3
:101C7300FA902422E0540FFB78A079181208F99007
:101C83002443EEF0902442EFF022B4021E90242568
:101C9300E0FA902424E0540FFB78A079181208F995
:101CA300902445EEF0EF902444F022B4031E9024D8
:101CB30027E0FA902426E0540FFB78A07918120845
:101CC300F9902447EEF0EF902446F022B4041E90DE
:101CD3002429E0FA902428E0540FFB78A079181205
:101CE30008F9902449EEF0EF902448F022B4051E41
:101CF30090242BE0FA90242AE0540FFB78A0791863
:101D03001208F990244BEEF0EF90244AF022B40627
:101D13001E90242DE0FA90242CE0540FFB78A07938
:101D2300181208F990244DEEF0EF90244CF0229015
:101D3300242FE0FA90242EE0540FFB78A079181298
:101D430008F990244FEEF0EF90244EF022902442B5
:101D5300E0FBA3E0FA901041E0C39AFE901040E04C
:101D63009B5003C3803CEEB40503D380354003D3BB
:101D7300803012092E902481F0C3FD74C89D9024F5
:101D830083F0E4902480F0902482F0905FC0E0A27E
:101D930059B0E392E0A2E192E2F0905FC0E0A2E0EA
:101DA300B0E182599262902444E0F503A3E0F50286
:101DB300901043E0C39AFE901042E09B5003C3800F
:101DC3003CEEB40503D380354003D3803012092E93
:101DD300902485F0C3FD74C89D902487F0E490247B
:101DE30084F0902486F0905FC0E0A259B0E792E4BB
:101DF300A2E592E6F0905FC0E0A2E4B0E5825992DA
:101E030063902446E0F503A3E0F502901045E0C398
:101E13009AFE901044E09B5003C3803CEEB405034C
:101E2300D380354003D3803012092E902489F0C328
:101E3300FD74C89D90248BF0E4902488F090248A4C
:101E4300F0905FC1E0A259B0E392E0A2E192E2F028
:101E5300905FC1E0A2E0B0E182599264902448E02F
:101E6300F503A3E0F502901047E0C39AFE901046F5
:101E7300E09B5003C3803CEEB40503D3803540039D
:101E8300D3803012092E90248DF0C3FD74C89D9029
:101E9300248FF0E490248CF090248EF0905FC1E0C6
:101EA300A259B0E792E4A2E592E6F0905FC1E0A206
:101EB300E4B0E58259926590244AE0F503A3E0F586
:101EC30002901049E0C39AFE901048E09B5003C370
:101ED300803CEEB40503D380354003D38030120930
:101EE3002E9024A1F0C3FD74C89D9024A3F0E49028
:101EF30024A0F09024A2F0905FC2E0A259B0E39234
:101F0300E0A2E192E2F0905FC2E0A2E0B0E1825988
:101F1300926690244CE0F503A3E0F50290104BE0A9
:101F2300C39AFE90104AE09B5003C3803CEEB40575
:101F330003D380354003D3803012092E9024A5F0BB
:101F4300C3FD74C89D9024A7F0E49024A4F09024CA
:101F5300A6F0905FC2E0A259B0E792E4A2E592E650
:101F6300F0905FC2E0A2E4B0E58259929022901013
:101F73003FE0FD901041E0C39DF504901040E094D4
:101F8300005004C2708013F505902444E0F503A3C8
:101F9300E0F50212085EA278927090103FE0FD9087
:101FA3001043E0C39DF504901042E094005004C236
:101FB300718013F505902444E0F503A3E0F50212C4
:101FC300085EA278927190103FE0FD901045E0C347
:101FD3009DF504901044E094005004C2728013F500
:101FE30005902446E0F503A3E0F50212085EA2780B
:101FF300927290103FE0FD901047E0C39DF504906E
:102003001046E094005004C2738013F505902448F1
:10201300E0F503A3E0F50212085EA2789273901034
:102023003FE0FD901049E0C39DF504901048E09413
:10203300005004C2748013F50590244AE0F503A30D
:10204300E0F50212085EA278927490103FE0FD90D2
:10205300104BE0C39DF50490104AE094005004C275
:10206300758013F50590244CE0F503A3E0F5021207
:10207300085EA2789275229023CBE0A24AB392E045
:10208300F0A249B3B03A927EA23A8249727E905F3F
:10209300C3E092E0F0A25AB049B05C927EA25372C0
:1020A30052B05AB049727E927E905FC3E0A2E1B013
:1020B30049B03A727E9023CBE092E3F0A239B04864
:1020C300905FC3E092E2F0A239B04882E3927EA22D
:1020D3005AB048B05C727E9023CBE092E2F0A23C0F
:1020E300B04D905FC3E092E4F0A23CB04D82E59224
:1020F3007EA25AB04DB05C727E9023CBE092E1F0A9
:10210300905F45E0A270B0E0927EA271B0E1727E72
:10211300927EA272B0E2727E927EA273B0E3727E6E
:10212300927EA274B0E4727E927EA275B0E5727E56
:10213300905FC3E092E6F0905FC3E030E703C267CD
:10214300F0905F43E0A2E48270905FC3E082E79087
:1021530023CBE092E4F0905F43E0A2E48271905FCE
:10216300C3E082E79023CBE092E5F0905F43E0A2E7
:10217300E48272905FC3E082E79023CBE092E6F0C3
:10218300905F43E0A2E48273905FC3E082E7902311
:10219300CBE092E7F0905F43E0A2E48274905FC3E8
:1021A300E082E79023CAE092E0F0905F43E0A2E48C
:1021B3008275905FC3E082E79023CAE092E1F02248
:1021C300E532853332F45533FFE53430E00FE490E4
:1021D3002300F0A3F0E535C2E0F5358035E5352081
:1021E300E030EF5401602B902301E02401F09023B1
:1021F30000E03400F0901091E0F9902301E0C399DE
:10220300901090E0F9902300E0994006E535D2E084
:10221300F535E53430E10FE4902302F0A3F0E53522
:10222300C2E1F5358035E53520E130EF5402602B0E
:10223300902303E02401F0902302E03400F0901097
:1022430093E0F9902303E0C399901092E0F990236F
:1022530002E0994006E535D2E1F535E53430E20F89
:10226300E4902304F0A3F0E535C2E2F5358035E5CB
:102273003520E230EF5404602B902305E02401F075
:10228300902304E03400F0901095E0F9902305E0EA
:10229300C399901094E0F9902304E0994006E53542
:1022A300D2E2F535E53430E50FE490230AF0A3F0EC
:1022B300E535C2E5F5358035E53520E530EF5420C9
:1022C300602B90230BE02401F090230AE03400F00C
:1022D300901191E0F990230BE0C399901190E0F9EC
:1022E30090230AE0994006E535D2E5F535E534302B
:1022F300E60FE490230CF0A3F0E535C2E6F5358054
:1023030035E53520E630EF5440602B90230DE02473
:1023130001F090230CE03400F090109DE0F990233D
:102323000DE0C39990109CE0F990230CE0994006CE
:10233300E535D2E6F53522E533A22192E1F533E521
:1023430035A2E1E53492E1F534E535A2E1E53392D6
:10235300E0F533E535A2E0E53492E0F534E533A268
:102363002192E2F533E535A2E2E53492E2F534E574
:1023730033A22192E5F533E535A2E59242A24390DB
:102383005F40E072E1500DE490230AF0A3F0E535DD
:07239300C2E5F5352222220C
:00000001FF
