:0300000002009269
:03000B000200618F
:1000230002073075A80075890075880075980075FA
:100033008A00758C00758B00758D00750800750F2F
:10004300FF75B81022C200C201C205C2062243894D
:1000530001758ADF758CF9D28CD2A9D2AF22758A49
:10006300DF758CF9050A051C05370538D50F02D253
:100073000632438920758DFDD28E2275985043A890
:10008300901200752275984043A89012007522754E
:1000930081E0758E037400902305F0E536B45502B4
:1000A3008038905F007400F090E800F078007FFFE4
:1000B3007400F608DFFC7D80905FC0F0A3DDFC9048
:1000C300238874007E047DFAF0A3DDFCDEF8905FE4
:1000D30043E0C392E092E192E4F012002612005151
:1000E3001206F57536551206E3121B2512093A124C
:1000F30008A612094112093A1225D7121B6D1206DE
:10010300E312093A12087B122705E538C3946050BD
:100113000F7538001208D3121FB91220C012240E13
:1001230012093A1223051224999023CAE0905FC45E
:10013300F09023CBE0905FC5F0D2072006A2D20750
:100143000200E6C2ACC200900400A3A3A3E0B43152
:10015300028026A3E0B43303020186B4360302010E
:10016300ECB4310302024CB4320302039BB43503F3
:100173000204EAB4460B0205B6A3E0B43003020658
:100183003401E312070B1207EE1207EEF50812070C
:1001930021A37430F0A37433F0A3E508C333F01242
:1001A300080AE508C333FFC083C082901000E582CC
:1001B3002511F582E5833510F583E0D082D08305E0
:1001C300115002051012080ADFDDE50875F004A4DA
:1001D3002406FF900500A31207C4E50875F004A4E4
:1001E3002407FF1207910206D312070B1207EEF53D
:1001F300F0C083C082901000E582C32511F582E52B
:10020300833510F583E5F0F0D082D0831207EEF545
:10021300F0901001E582C32511F582E5833510F5D1
:1002230083E5F0F0750800900400E508C32582F526
:1002330082E0F5F0900500E508C32582F582E5F03C
:10024300F00508B40AE10206D3751A00A31207EEFB
:1002530075F020A4F5101207EE75F00884C325107D
:10026300F511E5F0C3FD1207EE1207EEF5081207CC
:1002730021A37430F0A37431F0A3C202E508C39440
:100283000950097401F51A12080A801ED202E50802
:1002930075F00884F508E5F0B40004E5088003E58B
:1002A3000804F51A12080AE5F0FFE508B401005046
:1002B300317430F0A3C083C082905F00E5822511C2
:1002C300F582E5833400F583E0C3BD0003138004A6
:1002D3001D1380F650067431F002037C7430F00273
:1002E300037C20021EC083C082905F00E58225113B
:1002F300F582E5833400F583E0F510E508D082D07C
:10030300838039C083C082905F00E5822511F58226
:10031300E5833400F583E0FDA3E0FEE511C324018A
:10032300F511E5103400F510EDD082D08312080AE0
:10033300E50814F508B401CBEEF510EFB40206E5B9
:100343001054036179B40306E51054076179B404CA
:1003530006E510540F6179B40506E510541F617961
:10036300B40606E510543F6179B40706E510547FDF
:100373006179E51054FF12080A900500A3E51A7588
:10038300F002A42406FF1207C4E51A75F002A424A0
:1003930007FF1207910206D3751A00A31207EE7521
:1003A300F020A4F5101207EE75F00884C32510F5AC
:1003B30011E5F0C3FD1207EE1207EEF5081207214F
:1003C300A37430F0A37432F0A3C202E508C3940906
:1003D30050097401F51A12080A801ED202E5087545
:1003E300F00884F508E5F0B40004E5088003E508A7
:1003F30004F51A12080AE5F0FFE508B401005031CC
:100403007430F0A3C083C082900F00E5822511F5FC
:1004130082E5833400F583E0C3BD00031380041D2C
:100423001380F650067431F00204CB7430F00204EA
:10043300CB20021EC083C082900F00E5822511F5F8
:1004430082E5833400F583E0F510E508D082D0839C
:100453008039C083C082900F00E5822511F582E5C3
:10046300833400F583E0FDA3E0FEE511C32401F529
:1004730011E5103400F510EDD082D08312080AE59F
:100483000814F508B401CBEEF510EFB40206E5103D
:10049300540381C8B40306E510540781C8B40406A5
:1004A300E510540F81C8B40506E510541F81C8B484
:1004B3000606E510543F81C8B40706E510547F8152
:1004C300C8E51054FF12080A900500A3E51A75F059
:1004D30002A42406FF1207C4E51A75F002A4240738
:1004E300FF1207910206D3A31207EEF51075F02051
:1004F300A4F5101207EE75F00884C32510F511E575
:10050300F0C3FD1207EEF5F0905F00E5822511F5CB
:1005130082E5833400F583E0F510E5F0B4FF37E5B9
:1005230010BD0004D2E08063BD0104D2E1805CBD54
:100533000204D2E28055BD0304D2E3804EBD04041D
:10054300D2E48047BD0504D2E58040BD0604D2E66F
:100553008039D2E78035E510BD0004C2E0802CBDB0
:100563000104C2E18025BD0204C2E2801EBD030472
:10057300C2E38017BD0404C2E48010BD0504C2E5D4
:100583008009BD0604C2E68002C2E7F07508007F59
:100593000F900400E508C32582F582E0F5F090058D
:1005A30000E508C32582F582E5F0F00508B40AE109
:1005B3000206D3A31207EEF51B75F020A4F5101263
:1005C30007EEF51A75F00884C32510F5111207EE2E
:1005D3001207EE1207EEC333F508FF78801207EE19
:1005E300F608DFF9905F00E5822511F582E5833493
:1005F30000F583AF087880E6F0A308DFFA7F0D7576
:100603000800900400E508C32582F582E0F5F09028
:100613000500E508C32582F582E5F0F00508DFE271
:100623007F0C900500A31207C47F0D1207910206E9
:10063300D312070B1207EE1207EEFD1207EE120795
:10064300EEF5F0C083C082901000E582C32511F55A
:1006530082E5833510F583E5F0F0D082D08312076D
:10066300EEF5F0C083C082901000E511C32401F5BC
:1006730011E5822511F582E5103400F510E583C3F9
:100683002510F583E5F0F0D082D083E511C3240172
:10069300F511E5103400DDA6750800900400E508A7
:1006A300C32582F582E0F5F0900500E508C32582B5
:1006B300F582E5F0F0E508C32401F508B40DDC7F0D
:1006C3000C900500A31207C47F0D1207910206D3F5
:1006D3001200887400F50812076A750FFFC206221C
:1006E30020060B20000420010522120146221206D7
:1006F300F522C2ACC205C2011200487400F508120B
:10070300007EC206750FFF22A31207EEC333F51056
:100713001207EEC333F511E5103400F510229005EE
:1007230000743AF0A37430F0A37431F022209904DA
:1007330020980D32300505D201C2993212076A3270
:10074300C0D0C083C082C0E0900400E582C3250806
:10075300F582E599F00508B40A02D200D0E0D08210
:10076300D083D0D0C29832C0D0C0E0C083C082C290
:1007730099900500C3E5822508F582E0F5990508FF
:10078300B40A02D205D082D083D0E0D0D022900523
:1007930000E5822FF582E5833400F583E50DF0A3B0
:1007A300E50EF0A3740DF0A3740AF0229007B4933E
:1007B30022303132333435363738394142434445B8
:1007C30046EFC303FF7400F5F0E01207EEC325F014
:1007D300DFF5F404F50C850C0954F0C41207AFF5EA
:1007E3000DE509540F1207AFF50E22E0C39430B4A0
:1007F3000A0040029407C4FAA3E0A3C39430B40AE6
:1008030000400294074A22C0E054F0C42430B43AB2
:100813000040022407F0A3D0E0540F2430B43A0080
:1008230040022407F0A322C37F107C007D00E51A59
:1008330033F51AE51B33F51BEC33FCF510ED33FDF3
:10084300F511EC9AFCED9BFDB34006E510FCE511B8
:10085300FDDFDBE51A33F51AE51B33F51B22C278FE
:10086300C279C27AEAC39CFEEB9D5003D278224E32
:100873007003D27922D27A22200705E4D2B58022EE
:10088300C2B57827E6905F00F090E800F0782CE698
:10089300905F01F090E801F0E530905F02F090E89E
:1008A30002F022E537C39432502575370090F800E3
:1008B300E0F4FA551EF529EAF51EA3E0F4FA551FF4
:1008C300F52AEAF51F900F00E529F0E52AA3F022A7
:1008D30090F818E0FC90F819E0FD5470C4F531ED80
:1008E300540FFDECFC902420E5312531F8E582C35B
:1008F30028F582EDF0A3ECF02275F010E4FFFEFD85
:10090300FCC3EA33FAEB33FB5010EC28FCED39FD62
:10091300EE3400FEEF3400FF4004D5F002C322C3DF
:10092300EC33FCED33FDEE33FEEF33FF80D4048371
:100933002200285078A0C8E5C0D2E1F5C022E50A1C
:10094300C3C203B40A004009D27FD203C3940AF599
:100953000A301041201147300344902389E0C32417
:1009630001F0902388E03400F0902388E0F5F090C4
:100973001050E0B5F002800440175011902389E035
:10098300F5F0901051E0B5F00280064004C21180EA
:100993000DD2118009C211E4902388F0A3F0301224
:1009A30042201348300345C390238BE0C32401F056
:1009B30090238AE03400F090238AE0F5F0901052FF
:1009C300E0B5F00280044017501190238BE0F5F05E
:1009D300901053E0B5F00280064004C213800DD29C
:1009E300138009C213E490238AF0A3F0301441204A
:1009F300154730034490238DE0C32401F090238CEA
:100A0300E03400F090238CE0F5F0901054E0B5F062
:100A13000280044017501190238DE0F5F09010559B
:100A2300E0B5F00280064004C215800DD21580099E
:100A3300C215E490238CF0A3F03016412017473001
:100A4300034490238FE0C32401F090238EE034000D
:100A5300F090238EE0F5F0901056E0B5F00280049C
:100A63004017501190238FE0F5F0901057E0B5F048
:100A73000280064004C217800DD2178009C217E412
:100A830090238EF0A3F0301841201947300344908F
:100A93002391E0C32401F0902390E03400F09023ED
:100AA30090E0F5F0901058E0B5F002800440175044
:100AB30011902391E0F5F0901059E0B5F002800613
:100AC3004004C219800DD2198009C219E490239001
:100AD300F0A3F0301A41201B47300344902393E0E6
:100AE300C32401F0902392E03400F0902392E0F5C8
:100AF300F090105AE0B5F002800440175011902393
:100B030093E0F5F090105BE0B5F00280064004C27C
:100B13001B800DD21B8009C21BE4902392F0A3F02B
:100B2300301C41201D47300344902395E0C324012A
:100B3300F0902394E03400F0902394E0F5F09010CB
:100B43005CE0B5F002800440175011902395E0F566
:100B5300F090105DE0B5F00280064004C21D800DE8
:100B6300D21D8009C21DE4902394F0A3F0301E41EE
:100B7300201F47300344902397E0C32401F09023C0
:100B830096E03400F0902396E0F5F090105EE0B527
:100B9300F002800440175011902397E0F5F0901075
:100BA3005FE0B5F00280064004C21F800DD21F80B3
:100BB30009C21FE4902396F0A3F03020412021477F
:100BC300300344902399E0C32401F0902398E03448
:100BD30000F0902398E0F5F0901060E0B5F002800B
:100BE3000440175011902399E0F5F0901061E0B59F
:100BF300F00280064004C221800DD2218009C22167
:100C0300E4902398F0A3F03022412023473003449B
:100C130090239BE0C32401F090239AE03400F090EA
:100C2300239AE0F5F0901062E0B5F00280044017DB
:100C3300501190239BE0F5F0901063E0B5F0028033
:100C4300064004C223800DD2238009C223E49023EB
:100C53009AF0A3F030244120254730034490239D8C
:100C6300E0C32401F090239CE03400F090239CE047
:100C7300F5F0901064E0B5F0028004401750119035
:100C8300239DE0F5F0901065E0B5F0028006400486
:100C9300C225800DD2258009C225E490239CF0A3B0
:100CA300F030264120274730034490239FE0C3249C
:100CB30001F090239EE03400F090239EE0F5F09045
:100CC3001066E0B5F00280044017501190239FE0B6
:100CD300F5F0901067E0B5F00280064004C227806B
:100CE3000DD2278009C227E490239EF0A3F0302879
:100CF300412029473003449023A1E0C32401F0900D
:100D030023A0E03400F09023A0E0F5F0901068E019
:100D1300B5F0028004401750119023A1E0F5F09044
:100D23001069E0B5F00280064004C229800DD22983
:100D33008009C229E49023A0F0A3F0302A41202B9C
:100D4300473003449023A3E0C32401F09023A2E09F
:100D53003400F09023A2E0F5F090106AE0B5F002C1
:100D63008004401750119023A3E0F5F090106BE03E
:100D7300B5F00280064004C22B800DD22B8009C23D
:100D83002BE49023A2F0A3F0302C41202D47300315
:100D9300449023A5E0C32401F09023A4E03400F0A1
:100DA3009023A4E0F5F090106CE0B5F002800440CD
:100DB3001750119023A5E0F5F090106DE0B5F00207
:100DC30080064004C22D800DD22D8009C22DE490EF
:100DD30023A4F0A3F0302E41202F47300344902367
:100DE300A7E0C32401F09023A6E03400F09023A6EB
:100DF300E0F5F090106EE0B5F0028004401750115A
:100E03009023A7E0F5F090106FE0B5F00280064064
:100E130004C22F800DD22F8009C22FE49023A6F0A5
:100E2300A3F030301430031A9023A9E0C32401F057
:100E33009023A8E03400F08009C231E49023A8F0A5
:100E4300A3F03032412033473003449023ABE0C357
:100E53002401F09023AAE03400F09023AAE0F5F0F7
:100E6300901072E0B5F0028004401750119023AB4C
:100E7300E0F5F0901073E0B5F00280064004C23351
:100E8300800DD2338009C233E49023AAF0A3F0305B
:100E930034412035473003449023ADE0C32401F0AF
:100EA3009023ACE03400F09023ACE0F5F0901074A4
:100EB300E0B5F0028004401750119023ADE0F5F047
:100EC300901075E0B5F00280064004C235800DD263
:100ED300358009C235E49023ACF0A3F030364120CD
:100EE30037473003449023AFE0C32401F09023AE8F
:100EF300E03400F09023AEE0F5F0901076E0B5F02A
:100F0300028004401750119023AFE0F5F090107762
:100F1300E0B5F00280064004C237800DD237800965
:100F2300C237E49023AEF0A3F03040412041473074
:100F330003449024B7E0C32401F09024B6E03400C6
:100F4300F09024B6E0F5F0901078E0B5F00280045C
:100F5300401750119024B7E0F5F0901079E0B5F008
:100F63000280064004C241800DD2418009C241E49F
:100F73009024B6F0A3F0304241204347300344901D
:100F830024B9E0C32401F09024B8E03400F09024A5
:100F9300B8E0F5F090107AE0B5F002800440175005
:100FA300119024B9E0F5F090107BE0B5F0028006D3
:100FB3004004C243800DD2438009C243E49024B865
:100FC300F0A3F03044412045473003449024BBE074
:100FD300C32401F09024BAE03400F09024BAE0F581
:100FE300F090107CE0B5F00280044017501190247B
:100FF300BBE0F5F090107DE0B5F00280064004C23E
:1010030045800DD2458009C245E49024BAF0A3F08F
:101013003046412047473003449024BDE0C32401B8
:10102300F09024BCE03400F09024BCE0F5F0901084
:101033007EE0B5F0028004401750119024BDE0F526
:10104300F090107FE0B5F00280064004C247800DA7
:10105300D2478009C247E49024BCF0A3F0905FC656
:10106300E030E04B20E1563003539024BFE0C3242B
:1010730001F09024BEE03400F09024BEE0F5F0903F
:101083001080E0B5F0028004401C50119024BFE0B2
:10109300F5F0901081E0B5F002800B4009905FC637
:1010A300E0C2E1F08017905FC6E0D2E1F0800E90DD
:1010B3005FC6E0C2E1F0E49024BEF0A3F0905FC607
:1010C300E030E24B20E3563003539024C1E0C324C5
:1010D30001F09024C0E03400F09024C0E0F5F090DB
:1010E3001082E0B5F0028004401C50119024C1E04E
:1010F300F5F0901083E0B5F002800B4009905FC6D5
:10110300E0C2E3F08017905FC6E0D2E3F0800E9078
:101113005FC6E0C2E3F0E49024C0F0A3F0905FC6A2
:10112300E030E44B20E5563003539024C3E0C3245E
:1011330001F09024C2E03400F09024C2E0F5F09076
:101143001084E0B5F0028004401C50119024C3E0E9
:10115300F5F0901085E0B5F002800B4009905FC672
:10116300E0C2E5F08017905FC6E0D2E5F0800E9014
:101173005FC6E0C2E5F0E49024C2F0A3F0905FC63E
:10118300E030E64B20E7563003539024C5E0C324F8
:1011930001F09024C4E03400F09024C4E0F5F09012
:1011A3001086E0B5F0028004401C50119024C5E085
:1011B300F5F0901087E0B5F002800B4009905FC610
:1011C300E0C2E7F08017905FC6E0D2E7F0800E90B0
:1011D3005FC6E0C2E7F0E49024C4F0A3F0905FCAD6
:1011E300E030E04B20E1563003539024E9E0C32480
:1011F30001F09024E8E03400F09024E8E0F5F0906A
:10120300101EE0B5F0028004401C50119024E9E068
:10121300F5F090101FE0B5F002800B4009905FCA13
:10122300E0C2E1F08017905FCAE0D2E1F0800E9057
:101233005FCAE0C2E1F0E49024E8F0A3F0905FCA53
:10124300E030E24B20E3563003539024EBE0C32419
:1012530001F09024EAE03400F09024EAE0F5F09005
:101263001020E0B5F0028004401C50119024EBE004
:10127300F5F0901021E0B5F002800B4009905FCAB1
:10128300E0C2E3F08017905FCAE0D2E3F0800E90F3
:101293005FCAE0C2E3F0E49024EAF0A3F0905FCAEF
:1012A300E030E44B20E5563003539024EDE0C324B3
:1012B30001F09024ECE03400F09024ECE0F5F090A1
:1012C3001022E0B5F0028004401C50119024EDE0A0
:1012D300F5F0901023E0B5F002800B4009905FCA4F
:1012E300E0C2E5F08017905FCAE0D2E5F0800E908F
:1012F3005FCAE0C2E5F0E49024ECF0A3F0905FCA8B
:10130300E030E64B20E7563003539024EFE0C3244C
:1013130001F09024EEE03400F09024EEE0F5F0903C
:101323001024E0B5F0028004401C50119024EFE03B
:10133300F5F0901025E0B5F002800B4009905FCAEC
:10134300E0C2E7F08017905FCAE0D2E7F0800E902A
:101353005FCAE0C2E7F0E49024EEF0A3F0905FCB25
:10136300E030E04B20E1563003539024F1E0C324F6
:1013730001F09024F0E03400F09024F0E0F5F090D8
:101383001026E0B5F0028004401C50119024F1E0D7
:10139300F5F0901027E0B5F002800B4009905FCB89
:1013A300E0C2E1F08017905FCBE0D2E1F0800E90D5
:1013B3005FCBE0C2E1F0E49024F0F0A3F0905FCBC8
:1013C300E030E24B20E3563003539024F3E0C32490
:1013D30001F09024F2E03400F09024F2E0F5F09074
:1013E3001028E0B5F0028004401C50119024F3E073
:1013F300F5F0901029E0B5F002800B4009905FCB27
:10140300E0C2E3F08017905FCBE0D2E3F0800E9070
:101413005FCBE0C2E3F0E49024F2F0A3F0905FCB63
:10142300E030E44B20E5563003539024F5E0C32429
:1014330001F09024F4E03400F09024F4E0F5F0900F
:10144300102AE0B5F0028004401C50119024F5E00E
:10145300F5F090102BE0B5F002800B4009905FCBC4
:10146300E0C2E5F08017905FCBE0D2E5F0800E900C
:101473005FCBE0C2E5F0E49024F4F0A3F0905FCBFF
:10148300E030E64B20E7563003539024F7E0C324C3
:1014930001F09024F6E03400F09024F6E0F5F090AB
:1014A300102CE0B5F0028004401C50119024F7E0AA
:1014B300F5F090102DE0B5F002800B4009905FCB62
:1014C300E0C2E7F08017905FCBE0D2E7F0800E90A8
:1014D3005FCBE0C2E7F0E49024F6F0A3F0E51CC391
:1014E300C208B464004007D208C39464F51C3008F2
:1014F30000905FC0E030E03A20E14E30084BC390EB
:1015030023B1E09401F09023B0E09400F040136025
:101513000280069023B1E06009905FC0E0C2E1F071
:101523008027905FC0E0D2E1F0E49023B0F0A3F015
:101533008017905FC0E0C2E1F0902480E0FDA3E05B
:101543009023B1F09023B0EDF0905FC0E030E23A29
:1015530020E34E30084BC39023B3E09401F0902373
:10156300B2E09400F04013600280069023B3E06081
:1015730009905FC0E0C2E3F08027905FC0E0D2E350
:10158300F0E49023B2F0A3F08017905FC0E0C2E3D1
:10159300F0902482E0FDA3E09023B3F09023B2ED1A
:1015A300F0905FC0E030E43A20E54E30084BC39042
:1015B30023B5E09401F09023B4E09400F04013606D
:1015C3000280069023B5E06009905FC0E0C2E5F0B9
:1015D3008027905FC0E0D2E5F0E49023B4F0A3F05D
:1015E3008017905FC0E0C2E5F0902484E0FDA3E0A3
:1015F3009023B5F09023B4EDF0905FC0E030E63A6D
:1016030020E74E30084BC39023B7E09401F09023BA
:10161300B6E09400F04013600280069023B7E060C8
:1016230009905FC0E0C2E7F08027905FC0E0D2E797
:10163300F0E49023B6F0A3F08017905FC0E0C2E718
:10164300F0902486E0FDA3E09023B7F09023B6ED5D
:10165300F0905FC1E030E03A20E14E30084BC39098
:1016630023B9E09401F09023B8E09400F0401360B4
:101673000280069023B9E06009905FC1E0C2E1F007
:101683008027905FC1E0D2E1F0E49023B8F0A3F0AB
:101693008017905FC1E0C2E1F0902488E0FDA3E0F1
:1016A3009023B9F09023B8EDF0905FC1E030E23AB7
:1016B30020E34E30084BC39023BBE09401F090230A
:1016C300BAE09400F04013600280069023BBE06010
:1016D30009905FC1E0C2E3F08027905FC1E0D2E3ED
:1016E300F0E49023BAF0A3F08017905FC1E0C2E367
:1016F300F090248AE0FDA3E09023BBF09023BAEDA1
:10170300F0905FC1E030E43A20E54E30084BC390DF
:1017130023BDE09401F09023BCE09400F0401360FB
:101723000280069023BDE06009905FC1E0C2E5F04E
:101733008027905FC1E0D2E5F0E49023BCF0A3F0F2
:101743008017905FC1E0C2E5F090248CE0FDA3E038
:101753009023BDF09023BCEDF0905FC1E030E63AFA
:1017630020E74E30084BC39023BFE09401F0902351
:10177300BEE09400F04013600280069023BFE06057
:1017830009905FC1E0C2E7F08027905FC1E0D2E734
:10179300F0E49023BEF0A3F08017905FC1E0C2E7AE
:1017A300F090248EE0FDA3E09023BFF09023BEEDE4
:1017B300F0905FC2E030E03A20E14E30084BC39036
:1017C30024ADE09401F09024ACE09400F040136069
:1017D3000280069024ADE06009905FC2E0C2E1F0B0
:1017E3008027905FC2E0D2E1F0E49024ACF0A3F054
:1017F3008017905FC2E0C2E1F09024A0E0FDA3E077
:101803009024ADF09024ACEDF0905FC2E030E23A6A
:1018130020E34E30084BC39024AFE09401F09024B2
:10182300AEE09400F04013600280069024AFE060C5
:1018330009905FC2E0C2E3F08027905FC2E0D2E389
:10184300F0E49024AEF0A3F08017905FC2E0C2E30F
:10185300F09024A2E0FDA3E09024AFF09024AEED3D
:10186300F0905FC2E030E43A20E54E30084BC3907D
:1018730024B1E09401F09024B0E09400F0401360B0
:101883000280069024B1E06009905FC2E0C2E5F0F7
:101893008027905FC2E0D2E5F0E49024B0F0A3F09B
:1018A3008017905FC2E0C2E5F09024A4E0FDA3E0BE
:1018B3009024B1F09024B0EDF0905FC2E030E63AAE
:1018C30020E74E30084BC39024B3E09401F09024FA
:1018D300B2E09400F04013600280069024B3E0600D
:1018E30009905FC2E0C2E7F08027905FC2E0D2E7D1
:1018F300F0E49024B2F0A3F08017905FC2E0C2E757
:10190300F09024A6E0FDA3E09024B3F09024B2ED80
:10191300F0905FC7E030E03A20E14E30084BC390CF
:1019230024B5E09401F09024B4E09400F0401360F7
:101933000280069024B5E06009905FC7E0C2E1F041
:101943008027905FC7E0D2E1F0E49024B4F0A3F0E5
:101953008017905FC7E0C2E1F09024A8E0FDA3E008
:101963009024B5F09024B4EDF0905FC7E030E23AF4
:1019730020E34E30084BC39024C7E09401F0902439
:10198300C6E09400F04013600280069024C7E06034
:1019930009905FC7E0C2E3F08027905FC7E0D2E31E
:1019A300F0E49024C6F0A3F08017905FC7E0C2E391
:1019B300F09024AAE0FDA3E09024C7F09024C6EDA4
:1019C300F0905FC3E030E03A20E14E30034BC39028
:1019D30023C3E09401F09023C2E09400F04013602D
:1019E3000280069023C3E06009905FC3E0C2E1F088
:1019F3008027905FC3E0D2E1F0E49023C2F0A3F02C
:101A03008017905FC3E0C2E1F0902490E0FDA3E073
:101A13009023C3F09023C2EDF0905FC3E030E23A2D
:101A230020E34E30034BC39023C5E09401F0902391
:101A3300C4E09400F04013600280069023C5E06088
:101A430009905FC3E0C2E3F08027905FC3E0D2E375
:101A5300F0E49023C4F0A3F08017905FC3E0C2E3E7
:101A6300F0902492E0FDA3E09023C5F09023C4ED11
:101A7300F0905FC3E030E43A20E54E30034BC3906F
:101A830023C7E09401F09023C6E09400F040136074
:101A93000280069023C7E06009905FC3E0C2E5F0CF
:101AA3008027905FC3E0D2E5F0E49023C6F0A3F073
:101AB3008017905FC3E0C2E5F0902494E0FDA3E0BB
:101AC3009023C7F09023C6EDF0905FC3E030E63A71
:101AD30020E74E30034BC39023C9E09401F09023D9
:101AE300C8E09400F04013600280069023C9E060D0
:101AF30009905FC3E0C2E7F08027905FC3E0D2E7BD
:101B0300F0E49023C8F0A3F08017905FC3E0C2E72E
:101B1300F0902496E0FDA3E09023C9F09023C8ED54
:101B2300F0229024977464F0902496E4F09024902B
:101B3300F09024917432F0E4902492F09024937402
:101B430032F0E4902494F09024957432F090109045
:101B53007427F0901092F0901094F07410901091FC
:101B6300F0901093F0901095F022905F44E0A2E67D
:101B7300926D905F43E0A2E39258E0A2E19259E0B4
:101B8300A2E0925AE0A2E2925D901056E0F5F0A333
:101B9300E090106FF0E5F090106EF0A25A82488248
:101BA300495002D25CA2488249825A824AA04A50D2
:101BB30002D22CA25AB068825C822D927E905F4240
:101BC300E0A2E37252B05AB04C727E824A824992CA
:101BD3003BA23B9222A238825A5004D210C22CA2BA
:101BE3003B825A824C5002D268A268824982488260
:101BF3005A825C5002D212A213825AB058B0699230
:101C03007EA213825A8258B020727E927E905F42E7
:101C1300E0A2E07250B05AB057727E824A9238A264
:101C2300389224A213825A824A9240A241825A8253
:101C3300135002D269A213825A824A5002D214A2CA
:101C430014B01550153030129023A8E09023C0F043
:101C53009023A9E09023C1F0C230A215921650043C
:101C6300D228D230A214B0155002C228A216825A2A
:101C7300825DB017927E205D16A216825AB05DB0C7
:101C830017B05F5004B25ED25FA25E727E927E9006
:101C93005F42E0A2E7B05A727E923EA215825A8258
:101CA300699236A2378249825AB06A927EA25A82D8
:101CB300488249B04DB05C727E927E905F42E0A252
:101CC300E47253B05A8249B04D727E824A923CA26A
:101CD3003C9226A25A823C824D825C5002D26AA276
:101CE3006A8217825A9218A26A8219825AB0439062
:101CF3005F40E082E0927EA26A8219825A905FC6B8
:101D0300E0B0E1905F40E0B0E0727E927E905F428F
:101D1300E0A2E27255B05A727E824A923AA25A8285
:101D2300199242A23A9244A219825A921AA21B828F
:101D33005A826A921CA21A825AB01B927EA21E82F7
:101D43005AB01F727E927E905F42E0A2E6B05A7252
:101D53007E824A923FA21D825A921EA21F825A92EB
:101D630020A25A82218248905FC6E092E0F0905F01
:101D730043E0A2E5825A821F9232A233825A9234FE
:101D8300A234B035927E905F44A2E0B05A727E9244
:101D930091A25A82218248905FC6E082E1927EA29C
:101DA3003D825A727E927EA25A8248B04A727E92D5
:101DB3007E905F44E0A2E17254B05A727EB04990C3
:101DC3005F40E082E0923DA23D9246A24882498272
:101DD3004A8221825A825CA04A500EC210C214C2A7
:101DE30012C268C269C26AC212A221825A905F43B8
:101DF300E0B0E5927EA221825A905F43E082E582C1
:101E030035727EA04A927EA25AB048B05C727E922E
:101E13007EA239825A824A727E927E905F42E0A20B
:101E2300E17251B05A727EB0489239A239905FC6BE
:101E3300E092E2F0A23BB023B04E927EA238B025EE
:101E4300B056727E927EA23CB027B04F727E927ED5
:101E5300A239905FC6E0B0E3727E927EA23AB045AB
:101E6300905F40E082E0727E927E905F44E0A2E366
:101E7300B05A727E927EA23DB047905F40E082E00E
:101E8300727E9261A238B0417239723C723B927E8B
:101E9300905F44E0A2E2B05A727E927EA23D723A13
:101EA300905F40E082E0727EE53072E672E7926016
:101EB300A216B0175004C26C8008A217B04D50028E
:101EC300D26CA26C825A826D905FCAE092E0F0A25B
:101ED3006C825A826D905FCAE082E192E2F0905F79
:101EE300CAE0A2E3825A826D92E4F0A25A826D9014
:101EF3005FCAE082E592E6F0905FCAE0A2E7825A09
:101F0300826D905FCBE092E0F0A25A826D905FCB3E
:101F1300E082E192E2F0905FCBE0A2E3825A826D2D
:101F2300905FCBE092E4F0A25A826D905FCBE082A7
:101F3300E592E6F0905FCAE0A2E1B0E3825A826DD7
:101F4300927E905FCBE0A2E1B0E3825A826D727E13
:101F5300927E905F44E0A2E5B05A727EE53092E74C
:101F6300F530905FCAE0A2E5B0E7825A826D927EB7
:101F7300905FCBE0A2E5B0E7825A826D727E927EDB
:101F8300905F44E0A2E4B05A727EE53092E6F53009
:101F9300905FC3E0A2E7B39267201602C25F205AA4
:101FA30014C210C25EC25CC214C212C230C268C282
:101FB30069C26AC22C22E531B4001E902421E0FAE2
:101FC300902420E0540FFB78A079181208FC902489
:101FD30041EEF0902440EFF022B4011E902423E060
:101FE300FA902422E0540FFB78A079181208FC9091
:101FF3002443EEF0902442EFF022B4021E902425F5
:10200300E0FA902424E0540FFB78A079181208FC1E
:10201300902445EEF0EF902444F022B4031E902464
:1020230027E0FA902426E0540FFB78A079181208D1
:10203300FC902447EEF0EF902446F022B4041E9067
:102043002429E0FA902428E0540FFB78A079181291
:1020530008FC902449EEF0EF902448F022B4051ECA
:1020630090242BE0FA90242AE0540FFB78A07918EF
:102073001208FC90244BEEF0EF90244AF022B406B1
:102083001E90242DE0FA90242CE0540FFB78A079C5
:10209300181208FC90244DEEF0EF90244CF022909F
:1020A300242FE0FA90242EE0540FFB78A079181225
:1020B30008FC90244FEEF0EF90244EF02290103D58
:1020C300E0F53B902442E0FBA3E0FA901041E0C32B
:1020D3009AFE901040E09B5003C38056EEB53B033D
:1020E300D3804F4003D3804A905FC0E0A2E1B39214
:1020F300E0F030E141902442E0FBA3E0FA9024CAEF
:10210300E0FDA3E0FC120861307813902442E090D4
:1021130024CAF0902443E09024CBF0D38014307A87
:1021230015902442E09024CAF0902443E09024CBFD
:10213300F0C382599262902444E0F503A3E0F502D0
:10214300901043E0C39AFE901042E09B5003C3807B
:102153003CEEB40503D380354003D38030120931FC
:10216300902485F0C3FD74C89D902487F0E49024E7
:1021730084F0902486F0905FC0E0A259B0E792E427
:10218300A2E592E6F0905FC0E0A2E4B0E582599246
:1021930063902446E0F503A3E0F502901045E0C305
:1021A3009AFE901044E09B5003C3803CEEB40503B9
:1021B300D380354003D38030120931902489F0C392
:1021C300FD74C89D90248BF0E4902488F090248AB9
:1021D300F0905FC1E0A259B0E392E0A2E192E2F095
:1021E300905FC1E0A2E0B0E182599264902448E09C
:1021F300F503A3E0F502901047E0C39AFE90104662
:10220300E09B5003C3803CEEB40503D38035400309
:10221300D3803012093190248DF0C3FD74C89D9092
:10222300248FF0E490248CF090248EF0905FC1E032
:10223300A259B0E792E4A2E592E6F0905FC1E0A272
:10224300E4B0E58259926590244AE0F503A3E0F5F2
:1022530002901049E0C39AFE901048E09B5003C3DC
:10226300803CEEB40503D380354003D3803012099C
:10227300319024A1F0C3FD74C89D9024A3F0E49091
:1022830024A0F09024A2F0905FC2E0A259B0E392A0
:10229300E0A2E192E2F0905FC2E0A2E0B0E18259F5
:1022A300926690244CE0F503A3E0F50290104BE016
:1022B300C39AFE90104AE09B5003C3803CEEB405E2
:1022C30003D380354003D380301209319024A9F021
:1022D300C3FD74C89D9024ABF0E49024A8F090242F
:1022E300AAF0905FC7E0A259B0E392E0A2E192E2C4
:1022F300F0905FC7E0A2E0B0E18259E53092E4F5E7
:10230300302290103FE0FD901041E0C39DF5049012
:102313001040E094005004C2708013F505902444EB
:10232300E0F503A3E0F502120861A2789270901021
:102333003FE0FD901043E0C39DF504901042E0940C
:10234300005004C2718013F505902444E0F503A303
:10235300E0F502120861A278927190103FE0FD90BF
:102363001045E0C39DF504901044E094005004C26E
:10237300728013F505902446E0F503A3E0F50212FD
:102383000861A278927290103FE0FD901047E0C37D
:102393009DF504901046E094005004C2738013F539
:1023A30005902448E0F503A3E0F502120861A27842
:1023B300927390103FE0FD901049E0C39DF50490A7
:1023C3001048E094005004C2748013F50590244A29
:1023D300E0F503A3E0F502120861A278927490106D
:1023E3003FE0FD90104BE0C39DF50490104AE0944C
:1023F300005004C2758013F50590244CE0F503A347
:10240300E0F502120861A278927522E531B4001F4B
:10241300902001E0FD902443E0C39DF5049020004B
:10242300E0FD902442E09DB3E53092E0F53022B424
:10243300011F902003E0FD902445E0C39DF5049027
:102443002002E0FD902444E09DB3E53092E1F530B5
:1024530022B4021F902005E0FD902447E0C39DF5C0
:1024630004902004E0FD902446E09DB3E53092E221
:10247300F53022B4031F902007E0FD902449E0C308
:102483009DF504902006E0FD902448E09DB3E530DF
:1024930092E3F53022229023CBE0A24AB392E0F0FC
:1024A300A23DB049927EA23A8249727E905FC3E018
:1024B30092E0F0A25AB049B05C927EA2537252B03D
:1024C3005AB049727E927E905FC3E0A2E1B049B0F8
:1024D3003A727E9023CBE092E3F0A239B048905F4A
:1024E300C3E092E2F0A239B04882E3927EA25AB0EE
:1024F30048B05C727E9023CBE092E2F0A23CB04DF8
:10250300905FC3E092E4F0A23CB04D82E5927EA2DC
:102513005AB04DB05C727E9023CBE092E1F0905FB5
:1025230045E0A270B0E0927EA271B0E1727E927E2D
:10253300A272B0E2727E927EA273B0E3727E927E4A
:10254300A274B0E4727E927EA275B0E5727E905F53
:10255300C3E092E6F0905F43E0A2E4A270905FC311
:10256300E082E79023CBE092E4F0905F43E0A2E4C3
:10257300A271905FC3E082E79023CBE092E5F090F5
:102583005F43E0A2E4A272905FC3E082E79023CBB3
:10259300E092E6F0905F43E0A2E4A273905FC3E0B1
:1025A30082E79023CBE092E7F0905F43E0A2E4A2BE
:1025B30074905FC3E082E79023CAE092E0F0905FFB
:1025C30043E0A2E4A275905FC3E082E79023CAE0F0
:1025D30092E1F022E532853332F45533FFE53430AE
:1025E300E00FE4902300F0A3F0E535C2E0F5358079
:1025F30035E53520E030EF5401602B902301E024D2
:1026030001F0902300E03400F0901091E0F9902362
:1026130001E0C399901090E0F9902300E0994006FF
:10262300E535D2E0F535E53430E10FE4902302F0EF
:10263300A3F0E535C2E1F5358035E53520E130EF2E
:102643005402602B902303E02401F0902302E03432
:1026530000F0901093E0F9902303E0C39990109257
:10266300E0F9902302E0994006E535D2E1F535E53E
:102673003430E20FE4902304F0A3F0E535C2E2F531
:10268300358035E53520E230EF5404602B90230587
:10269300E02401F0902304E03400F0901095E0F979
:1026A300902305E0C399901094E0F9902304E099F6
:1026B3004006E535D2E2F535E53430E60FE4902304
:1026C3000CF0A3F0E535C2E6F5358035E53520E6B7
:1026D30030EF5440602B90230DE02401F090230C45
:1026E300E03400F090109DE0F990230DE0C3999041
:1026F300109CE0F990230CE0994006E535D2E6F50D
:102703003522E533A22192E1F533E535A2E1E53443
:1027130092E1F534E535A2E1E53392E0F533E535B1
:10272300A2E0E53492E0F534E533A22192E2F533F9
:0F273300905F41E030E607E4902304F0A3F0222A
:00000001FF
